{"contracts/BatikAuthenticity.sol":{"BatikAuthenticity":{"abi":[{"inputs":[],"stateMutability":"nonpayable","type":"constructor"},{"anonymous":false,"inputs":[{"indexed":true,"internalType":"address","name":"previousOwner","type":"address"},{"indexed":true,"internalType":"address","name":"newOwner","type":"address"}],"name":"OwnershipTransferred","type":"event"},{"anonymous":false,"inputs":[{"indexed":true,"internalType":"uint256","name":"id","type":"uint256"},{"indexed":false,"internalType":"string","name":"productName","type":"string"},{"indexed":false,"internalType":"string","name":"artisanName","type":"string"},{"indexed":true,"internalType":"address","name":"addedBy","type":"address"}],"name":"ProductAdded","type":"event"},{"anonymous":false,"inputs":[{"indexed":true,"internalType":"uint256","name":"id","type":"uint256"},{"indexed":true,"internalType":"address","name":"verifiedBy","type":"address"},{"indexed":false,"internalType":"uint256","name":"timestamp","type":"uint256"}],"name":"ProductVerified","type":"event"},{"inputs":[{"internalType":"uint256","name":"_id","type":"uint256"},{"internalType":"string","name":"_productName","type":"string"},{"internalType":"string","name":"_artisanName","type":"string"},{"internalType":"string","name":"_artisanAddress","type":"string"},{"internalType":"string","name":"_village","type":"string"},{"internalType":"string","name":"_district","type":"string"},{"internalType":"string","name":"_regency","type":"string"},{"internalType":"string","name":"_province","type":"string"},{"internalType":"string","name":"_coordinates","type":"string"},{"internalType":"string","name":"_technique","type":"string"},{"internalType":"string","name":"_materials","type":"string"},{"internalType":"string","name":"_description","type":"string"},{"internalType":"string","name":"_imageHash","type":"string"},{"internalType":"string","name":"_artisanImageHash","type":"string"},{"internalType":"string","name":"_videoHash","type":"string"}],"name":"addProduct","outputs":[],"stateMutability":"nonpayable","type":"function"},{"inputs":[{"internalType":"uint256","name":"_id","type":"uint256"}],"name":"getProduct","outputs":[{"components":[{"internalType":"uint256","name":"id","type":"uint256"},{"internalType":"string","name":"productName","type":"string"},{"internalType":"string","name":"artisanName","type":"string"},{"internalType":"string","name":"artisanAddress","type":"string"},{"internalType":"string","name":"village","type":"string"},{"internalType":"string","name":"district","type":"string"},{"internalType":"string","name":"regency","type":"string"},{"internalType":"string","name":"province","type":"string"},{"internalType":"string","name":"coordinates","type":"string"},{"internalType":"string","name":"technique","type":"string"},{"internalType":"string","name":"materials","type":"string"},{"internalType":"string","name":"description","type":"string"},{"internalType":"string","name":"imageHash","type":"string"},{"internalType":"string","name":"artisanImageHash","type":"string"},{"internalType":"string","name":"videoHash","type":"string"},{"internalType":"uint256","name":"mintDate","type":"uint256"},{"internalType":"bool","name":"isVerified","type":"bool"},{"internalType":"address","name":"verifiedBy","type":"address"}],"internalType":"struct BatikAuthenticity.Product","name":"","type":"tuple"}],"stateMutability":"view","type":"function"},{"inputs":[{"internalType":"uint256","name":"_id","type":"uint256"}],"name":"getProductBasicInfo","outputs":[{"internalType":"uint256","name":"id","type":"uint256"},{"internalType":"string","name":"productName","type":"string"},{"internalType":"string","name":"artisanName","type":"string"},{"internalType":"string","name":"village","type":"string"},{"internalType":"string","name":"technique","type":"string"},{"internalType":"bool","name":"isVerified","type":"bool"}],"stateMutability":"view","type":"function"},{"inputs":[{"internalType":"uint256","name":"_index","type":"uint256"}],"name":"getProductIdByIndex","outputs":[{"internalType":"uint256","name":"","type":"uint256"}],"stateMutability":"view","type":"function"},{"inputs":[],"name":"getTotalProducts","outputs":[{"internalType":"uint256","name":"","type":"uint256"}],"stateMutability":"view","type":"function"},{"inputs":[{"internalType":"uint256","name":"","type":"uint256"}],"name":"idExists","outputs":[{"internalType":"bool","name":"","type":"bool"}],"stateMutability":"view","type":"function"},{"inputs":[{"internalType":"uint256","name":"_id","type":"uint256"}],"name":"isProductVerified","outputs":[{"internalType":"bool","name":"","type":"bool"}],"stateMutability":"view","type":"function"},{"inputs":[],"name":"owner","outputs":[{"internalType":"address","name":"","type":"address"}],"stateMutability":"view","type":"function"},{"inputs":[{"internalType":"uint256","name":"","type":"uint256"}],"name":"productIds","outputs":[{"internalType":"uint256","name":"","type":"uint256"}],"stateMutability":"view","type":"function"},{"inputs":[{"internalType":"uint256","name":"","type":"uint256"}],"name":"products","outputs":[{"internalType":"uint256","name":"id","type":"uint256"},{"internalType":"string","name":"productName","type":"string"},{"internalType":"string","name":"artisanName","type":"string"},{"internalType":"string","name":"artisanAddress","type":"string"},{"internalType":"string","name":"village","type":"string"},{"internalType":"string","name":"district","type":"string"},{"internalType":"string","name":"regency","type":"string"},{"internalType":"string","name":"province","type":"string"},{"internalType":"string","name":"coordinates","type":"string"},{"internalType":"string","name":"technique","type":"string"},{"internalType":"string","name":"materials","type":"string"},{"internalType":"string","name":"description","type":"string"},{"internalType":"string","name":"imageHash","type":"string"},{"internalType":"string","name":"artisanImageHash","type":"string"},{"internalType":"string","name":"videoHash","type":"string"},{"internalType":"uint256","name":"mintDate","type":"uint256"},{"internalType":"bool","name":"isVerified","type":"bool"},{"internalType":"address","name":"verifiedBy","type":"address"}],"stateMutability":"view","type":"function"},{"inputs":[],"name":"renounceOwnership","outputs":[],"stateMutability":"nonpayable","type":"function"},{"inputs":[{"internalType":"address","name":"newOwner","type":"address"}],"name":"transferOwnership","outputs":[],"stateMutability":"nonpayable","type":"function"},{"inputs":[{"internalType":"uint256","name":"_id","type":"uint256"}],"name":"verifyProduct","outputs":[],"stateMutability":"nonpayable","type":"function"}],"evm":{"bytecode":{"linkReferences":{},"object":"6080806040523461005f5760008054336001600160a01b0319821681178355916001600160a01b03909116907f8be0079c531659141344cd1fd0a4f28419497f9722a3daafe3b4186f6b6457e09080a3600180556124a390816100658239f35b600080fdfe61010080604052600436101561001457600080fd5b60003560e01c9081630b8a295a146121a3575080631f1fc4e314612155578063524e846214612065578063570aea8a14612047578063602c974514611fe3578063715018a614611f8a5780637acc0b2014611d495780638da5cb5b14611d2057806392cdfcd514611b41578063b9db15b414611793578063cb51bba91461175b578063f2fde38b146116905763fbfb988e146100af57600080fd5b3461168b576101e036600319011261168b576024356001600160401b03811161168b576100e090369060040161237a565b6044356001600160401b03811161168b576100ff90369060040161237a565b6064356001600160401b03811161168b5761011e90369060040161237a565b6084356001600160401b03811161168b5761013d90369060040161237a565b60a4356001600160401b03811161168b5761015c90369060040161237a565b60c4356001600160401b03811161168b5761017b90369060040161237a565b60e4356001600160401b03811161168b5761019a90369060040161237a565b610104356001600160401b03811161168b576101ba90369060040161237a565b610124356001600160401b03811161168b576101da90369060040161237a565b610144356001600160401b03811161168b576101fa90369060040161237a565b91610164356001600160401b03811161168b5761021b90369060040161237a565b93610184356001600160401b03811161168b5761023c90369060040161237a565b956001600160401b036101a4351161168b5761025e366101a43560040161237a565b976101c4356001600160401b03811161168b5761027f90369060040161237a565b996102886123d0565b600260015414611646576002600155600435600052600460205260ff6040600020541661160157600435156115b2578d511561156d578c5115611528578051156114e3578d9b8d604080519e8f906102df8261220a565b60043582526020820152015260608d015260808c015260a08b015260c08a015260e08901526101008801526101208701526101408601526101608501526101808401526101a08301526101c0820152426101e082015260006102008201526000610220820152600435600052600260205260406000208151815560208201518051906001600160401b03821161097557819061037e60018501546121d0565b601f8111611490575b50602090601f831160011461141e57600092611413575b50508160011b916000199060031b1c19161760018201555b60408201518051906001600160401b0382116109755781906103db60028501546121d0565b601f81116113c0575b50602090601f831160011461134e57600092611343575b50508160011b916000199060031b1c19161760028201555b60608201518051906001600160401b03821161097557819061043860038501546121d0565b601f81116112f0575b50602090601f831160011461127e57600092611273575b50508160011b916000199060031b1c19161760038201555b60808201518051906001600160401b03821161097557819061049560048501546121d0565b601f8111611220575b50602090601f83116001146111ae576000926111a3575b50508160011b916000199060031b1c19161760048201555b60a08201518051906001600160401b0382116109755781906104f260058501546121d0565b601f8111611150575b50602090601f83116001146110de576000926110d3575b50508160011b916000199060031b1c19161760058201555b60c08201518051906001600160401b03821161097557819061054f60068501546121d0565b601f8111611080575b50602090601f831160011461100e57600092611003575b50508160011b916000199060031b1c19161760068201555b60e08201518051906001600160401b0382116109755781906105ac60078501546121d0565b601f8111610fb0575b50602090601f8311600114610f3e57600092610f33575b50508160011b916000199060031b1c19161760078201555b6101008201518051906001600160401b03821161097557819061060a60088501546121d0565b601f8111610ee0575b50602090601f8311600114610e6e57600092610e63575b50508160011b916000199060031b1c19161760088201555b6101208201518051906001600160401b03821161097557819061066860098501546121d0565b601f8111610e10575b50602090601f8311600114610d9e57600092610d93575b50508160011b916000199060031b1c19161760098201555b6101408201518051906001600160401b0382116109755781906106c6600a8501546121d0565b601f8111610d40575b50602090601f8311600114610cce57600092610cc3575b50508160011b916000199060031b1c191617600a8201555b6101608201518051906001600160401b038211610975578190610724600b8501546121d0565b601f8111610c70575b50602090601f8311600114610bfe57600092610bf3575b50508160011b916000199060031b1c191617600b8201555b6101808201518051906001600160401b038211610975578190610782600c8501546121d0565b601f8111610ba0575b50602090601f8311600114610b2e57600092610b23575b50508160011b916000199060031b1c191617600c8201555b6101a08201518051906001600160401b0382116109755781906107e0600d8501546121d0565b601f8111610ad0575b50602090601f8311600114610a5e57600092610a53575b50508160011b916000199060031b1c191617600d8201555b6101c08201518051906001600160401b0382116109755761083c600e8401546121d0565b601f8111610a0c575b50602090601f83116001146109965791806108ca949260109460009261098b575b50508160011b916000199060031b1c191617600e8201555b6101e0840151600f8201556102008401519101805461022090940151610100600160a81b0360089190911b1691151560ff166001600160a81b0319909416939093171790915560ff1990565b60035468010000000000000000811015610975578060016108ee920160035561232d565b81549060031b90600435821b91600019901b1916179055600435600052600460205260016040600020918254161790557f3b57b518fcac2f7b307764de2a4b23b8543199fbd772f419dcb5a470edbc0ba7610954604051936040855260408501906122ed565b9280840360208201528061096c3395600435956122ed565b0390a360018055005b634e487b7160e01b600052604160045260246000fd5b015190503880610866565b90600e840160005260206000209160005b601f19851681106109f45750926108ca949260019260109583601f198116106109db575b505050811b01600e82015561087e565b015160001960f88460031b161c191690553880806109cb565b919260206001819286850151815501940192016109a7565b600e84016000526020600020601f840160051c810160208510610a4c575b601f830160051c82018110610a40575050610845565b60008155600101610a2a565b5080610a2a565b015190503880610800565b9250600d84016000526020600020906000935b601f1984168510610ab5576001945083601f19811610610a9c575b505050811b01600d820155610818565b015160001960f88460031b161c19169055388080610a8c565b81810151835560209485019460019093019290910190610a71565b909150600d84016000526020600020601f840160051c810160208510610b1c575b90849392915b601f830160051c82018110610b0d5750506107e9565b60008155859450600101610af7565b5080610af1565b0151905038806107a2565b9250600c84016000526020600020906000935b601f1984168510610b85576001945083601f19811610610b6c575b505050811b01600c8201556107ba565b015160001960f88460031b161c19169055388080610b5c565b81810151835560209485019460019093019290910190610b41565b909150600c84016000526020600020601f840160051c810160208510610bec575b90849392915b601f830160051c82018110610bdd57505061078b565b60008155859450600101610bc7565b5080610bc1565b015190503880610744565b9250600b84016000526020600020906000935b601f1984168510610c55576001945083601f19811610610c3c575b505050811b01600b82015561075c565b015160001960f88460031b161c19169055388080610c2c565b81810151835560209485019460019093019290910190610c11565b909150600b84016000526020600020601f840160051c810160208510610cbc575b90849392915b601f830160051c82018110610cad57505061072d565b60008155859450600101610c97565b5080610c91565b0151905038806106e6565b9250600a84016000526020600020906000935b601f1984168510610d25576001945083601f19811610610d0c575b505050811b01600a8201556106fe565b015160001960f88460031b161c19169055388080610cfc565b81810151835560209485019460019093019290910190610ce1565b909150600a84016000526020600020601f840160051c810160208510610d8c575b90849392915b601f830160051c82018110610d7d5750506106cf565b60008155859450600101610d67565b5080610d61565b015190503880610688565b9250600984016000526020600020906000935b601f1984168510610df5576001945083601f19811610610ddc575b505050811b0160098201556106a0565b015160001960f88460031b161c19169055388080610dcc565b81810151835560209485019460019093019290910190610db1565b909150600984016000526020600020601f840160051c810160208510610e5c575b90849392915b601f830160051c82018110610e4d575050610671565b60008155859450600101610e37565b5080610e31565b01519050388061062a565b9250600884016000526020600020906000935b601f1984168510610ec5576001945083601f19811610610eac575b505050811b016008820155610642565b015160001960f88460031b161c19169055388080610e9c565b81810151835560209485019460019093019290910190610e81565b909150600884016000526020600020601f840160051c810160208510610f2c575b90849392915b601f830160051c82018110610f1d575050610613565b60008155859450600101610f07565b5080610f01565b0151905038806105cc565b9250600784016000526020600020906000935b601f1984168510610f95576001945083601f19811610610f7c575b505050811b0160078201556105e4565b015160001960f88460031b161c19169055388080610f6c565b81810151835560209485019460019093019290910190610f51565b909150600784016000526020600020601f840160051c810160208510610ffc575b90849392915b601f830160051c82018110610fed5750506105b5565b60008155859450600101610fd7565b5080610fd1565b01519050388061056f565b9250600684016000526020600020906000935b601f1984168510611065576001945083601f1981161061104c575b505050811b016006820155610587565b015160001960f88460031b161c1916905538808061103c565b81810151835560209485019460019093019290910190611021565b909150600684016000526020600020601f840160051c8101602085106110cc575b90849392915b601f830160051c820181106110bd575050610558565b600081558594506001016110a7565b50806110a1565b015190503880610512565b9250600584016000526020600020906000935b601f1984168510611135576001945083601f1981161061111c575b505050811b01600582015561052a565b015160001960f88460031b161c1916905538808061110c565b818101518355602094850194600190930192909101906110f1565b909150600584016000526020600020601f840160051c81016020851061119c575b90849392915b601f830160051c8201811061118d5750506104fb565b60008155859450600101611177565b5080611171565b0151905038806104b5565b9250600484016000526020600020906000935b601f1984168510611205576001945083601f198116106111ec575b505050811b0160048201556104cd565b015160001960f88460031b161c191690553880806111dc565b818101518355602094850194600190930192909101906111c1565b909150600484016000526020600020601f840160051c81016020851061126c575b90849392915b601f830160051c8201811061125d57505061049e565b60008155859450600101611247565b5080611241565b015190503880610458565b9250600384016000526020600020906000935b601f19841685106112d5576001945083601f198116106112bc575b505050811b016003820155610470565b015160001960f88460031b161c191690553880806112ac565b81810151835560209485019460019093019290910190611291565b909150600384016000526020600020601f840160051c81016020851061133c575b90849392915b601f830160051c8201811061132d575050610441565b60008155859450600101611317565b5080611311565b0151905038806103fb565b9250600284016000526020600020906000935b601f19841685106113a5576001945083601f1981161061138c575b505050811b016002820155610413565b015160001960f88460031b161c1916905538808061137c565b81810151835560209485019460019093019290910190611361565b909150600284016000526020600020601f840160051c81016020851061140c575b90849392915b601f830160051c820181106113fd5750506103e4565b600081558594506001016113e7565b50806113e1565b01519050388061039e565b9250600184016000526020600020906000935b601f1984168510611475576001945083601f1981161061145c575b505050811b0160018201556103b6565b015160001960f88460031b161c1916905538808061144c565b81810151835560209485019460019093019290910190611431565b909150600184016000526020600020601f840160051c8101602085106114dc575b90849392915b601f830160051c820181106114cd575050610387565b600081558594506001016114b7565b50806114b1565b60405162461bcd60e51b815260206004820152601760248201527f56696c6c6167652063616e6e6f7420626520656d7074790000000000000000006044820152606490fd5b60405162461bcd60e51b815260206004820152601c60248201527f4172746973616e206e616d652063616e6e6f7420626520656d707479000000006044820152606490fd5b60405162461bcd60e51b815260206004820152601c60248201527f50726f64756374206e616d652063616e6e6f7420626520656d707479000000006044820152606490fd5b60405162461bcd60e51b815260206004820152602160248201527f50726f64756374204944206d7573742062652067726561746572207468616e206044820152600360fc1b6064820152608490fd5b60405162461bcd60e51b815260206004820152601960248201527f50726f6475637420494420616c726561647920657869737473000000000000006044820152606490fd5b60405162461bcd60e51b815260206004820152601f60248201527f5265656e7472616e637947756172643a207265656e7472616e742063616c6c006044820152606490fd5b600080fd5b3461168b57602036600319011261168b576004356001600160a01b038181169182900361168b576116bf6123d0565b811561170757600054826bffffffffffffffffffffffff60a01b821617600055167f8be0079c531659141344cd1fd0a4f28419497f9722a3daafe3b4186f6b6457e0600080a3005b60405162461bcd60e51b815260206004820152602660248201527f4f776e61626c653a206e6577206f776e657220697320746865207a65726f206160448201526564647265737360d01b6064820152608490fd5b3461168b57602036600319011261168b5760043560035481101561168b5761178460209161232d565b90549060031b1c604051908152f35b3461168b57602036600319011261168b5760006102206040516117b58161220a565b828152606060208201526060604082015260608082015260606080820152606060a0820152606060c0820152606060e08201526060610100820152606061012082015260606101408201526060610160820152606061018082015260606101a082015260606101c0820152826101e082015282610200820152015260043580600052600460205261184d60ff60406000205416612428565b600052600260205260406000206010604051916118698361220a565b8054835261187960018201612247565b602084015261188a60028201612247565b604084015261189b60038201612247565b60608401526118ac60048201612247565b60808401526118bd60058201612247565b60a08401526118ce60068201612247565b60c08401526118df60078201612247565b60e08401526118f060088201612247565b61010084015261190260098201612247565b610120840152611914600a8201612247565b610140840152611926600b8201612247565b610160840152611938600c8201612247565b61018084015261194a600d8201612247565b6101a084015261195c600e8201612247565b6101c0840152600f8101546101e0840152015460ff8116151561020083015260018060a01b039060081c1661022082015260405180916020825280516020830152611b0e611af6611ade611ac6611aae611a96611a7e611a66611a4f611a39611a238b8d6080611a0e6119f96119e3602086015161024060408701526102608601906122ed565b6040860151858203601f190160608701526122ed565b6060850151848203601f1901848601526122ed565b9201519060a0601f19828503019101526122ed565b60a08c01518d8203601f190160c08f01526122ed565b60c08b01518c8203601f190160e08e01526122ed565b60e08a01518b8203601f19016101008d01526122ed565b6101008901518a8203601f19016101208c01526122ed565b610120880151898203601f19016101408b01526122ed565b610140870151888203601f19016101608a01526122ed565b610160860151878203601f19016101808901526122ed565b610180850151868203601f19016101a08801526122ed565b6101a0840151858203601f19016101c08701526122ed565b6101c0830151848203601f19016101e08601526122ed565b906101e0810151610200840152610200810151151561022084015261022060018060a01b03910151166102408301520390f35b3461168b57602036600319011261168b57600435806000526004602052611b6f60ff60406000205416612428565b60005260026020526040600020604051611b888161220a565b81548152611b9860018301612247565b9060208101918252611d16611baf60028501612247565b9360408301948552611bc360038201612247565b6060840152611d08611bd760048301612247565b9160808501928352611beb60058201612247565b60a0860152611bfc60068201612247565b60c0860152611c0d60078201612247565b60e0860152611c1e60088201612247565b610100860152611cfa6010611c3560098401612247565b926101208801938452611c4a600a8201612247565b610140890152611c5c600b8201612247565b610160890152611c6e600c8201612247565b610180890152611c80600d8201612247565b6101a0890152611c92600e8201612247565b6101c0890152600f8101546101e089015201549560ff87161515968761020083015260018060a01b039060081c1661022082015251965197519351915193611cec604051998a998a5260c060208b015260c08a01906122ed565b9088820360408a01526122ed565b9086820360608801526122ed565b9084820360808601526122ed565b9060a08301520390f35b3461168b57600036600319011261168b576000546040516001600160a01b039091168152602090f35b3461168b57602036600319011261168b5760043560005260026020526040600020805460018201611d7990612247565b60e052611d8860028301612247565b60c052611d9760038301612247565b91611da460048201612247565b611db060058301612247565b611dbc60068401612247565b611dc860078501612247565b611dd460088601612247565b611de060098701612247565b90611ded600a8801612247565b92611dfa600b8901612247565b94611e07600c8a01612247565b96611e14600d8b01612247565b98611e21600e8c01612247565b9a600f81015460a052601001549c6040519c8d60809e8f52528c610240809151602001528d510160e05190611e55916122ed565b8d51808203906040015260c05190611e6c916122ed565b8d518082039060600152611e7f916122ed565b8c518d818303910152611e91916122ed565b8b518082039060a00152611ea4916122ed565b8a518082039060c00152611eb7916122ed565b89518082039060e00152611eca916122ed565b8851808203906101000152611ede916122ed565b8751808203906101200152611ef2916122ed565b8651808203906101400152611f06916122ed565b8551808203906101600152611f1a916122ed565b8451808203906101800152611f2e916122ed565b8351808203906101a00152611f42916122ed565b8251808203906101c00152611f56916122ed565b9160a05182516101e0015260ff8116151582516102000152600160a01b600190039060081c16815161022001525180910390f35b3461168b57600036600319011261168b57611fa36123d0565b600080546001600160a01b0319811682556001600160a01b03167f8be0079c531659141344cd1fd0a4f28419497f9722a3daafe3b4186f6b6457e08280a3005b3461168b57602036600319011261168b5760043560035481101561200c5761178460209161232d565b60405162461bcd60e51b8152602060048201526013602482015272496e646578206f7574206f6620626f756e647360681b6044820152606490fd5b3461168b57600036600319011261168b576020600354604051908152f35b3461168b5760208060031936011261168b576004356120826123d0565b806000526004825261209b60ff60406000205416612428565b806000526002825260ff60106040600020015416612110576000818152600283526040902060100180546001600160a81b0319163360081b610100600160a81b03161760011790557fa913def5e0a2f15c60fa63fe23979256a1ff8d6d893238336fa0683b9951266d604051924284523393a3005b60405162461bcd60e51b815260048101839052601860248201527f50726f6475637420616c726561647920766572696669656400000000000000006044820152606490fd5b3461168b57602036600319011261168b5760043580600052600460205261218360ff60406000205416612428565b6000526002602052602060ff601060406000200154166040519015158152f35b3461168b57602036600319011261168b576020906004356000526004825260ff6040600020541615158152f35b90600182811c92168015612200575b60208310146121ea57565b634e487b7160e01b600052602260045260246000fd5b91607f16916121df565b61024081019081106001600160401b0382111761097557604052565b90601f801991011681019081106001600160401b0382111761097557604052565b906040519182600082549261225b846121d0565b9081845260019485811690816000146122ca5750600114612287575b505061228592500383612226565b565b9093915060005260209081600020936000915b8183106122b257505061228593508201013880612277565b8554888401850152948501948794509183019161229a565b91505061228594506020925060ff191682840152151560051b8201013880612277565b919082519283825260005b848110612319575050826000602080949584010152601f8019910116010190565b6020818301810151848301820152016122f8565b6003548110156123645760036000527fc2575a0e9e593c00f959f8c92f12db2869c3395a3b0502d05e2516446f71f85b0190600090565b634e487b7160e01b600052603260045260246000fd5b81601f8201121561168b578035906001600160401b03821161097557604051926123ae601f8401601f191660200185612226565b8284526020838301011161168b57816000926020809301838601378301015290565b6000546001600160a01b031633036123e457565b606460405162461bcd60e51b815260206004820152602060248201527f4f776e61626c653a2063616c6c6572206973206e6f7420746865206f776e65726044820152fd5b1561242f57565b60405162461bcd60e51b8152602060048201526016602482015275141c9bd91d58dd08191bd95cc81b9bdd08195e1a5cdd60521b6044820152606490fdfea26469706673582212205b20d981053f14439d7f5a82237a312d94e0523eddf5d2130d3ccc815650fd8b64736f6c63430008130033","opcodes":"PUSH1 0x80 DUP1 PUSH1 0x40 MSTORE CALLVALUE PUSH2 0x5F JUMPI PUSH1 0x0 DUP1 SLOAD CALLER PUSH1 0x1 PUSH1 0x1 PUSH1 0xA0 SHL SUB NOT DUP3 AND DUP2 OR DUP4 SSTORE SWAP2 PUSH1 0x1 PUSH1 0x1 PUSH1 0xA0 SHL SUB SWAP1 SWAP2 AND SWAP1 PUSH32 0x8BE0079C531659141344CD1FD0A4F28419497F9722A3DAAFE3B4186F6B6457E0 SWAP1 DUP1 LOG3 PUSH1 0x1 DUP1 SSTORE PUSH2 0x24A3 SWAP1 DUP2 PUSH2 0x65 DUP3 CODECOPY RETURN JUMPDEST PUSH1 0x0 DUP1 REVERT INVALID PUSH2 0x100 DUP1 PUSH1 0x40 MSTORE PUSH1 0x4 CALLDATASIZE LT ISZERO PUSH2 0x14 JUMPI PUSH1 0x0 DUP1 REVERT JUMPDEST PUSH1 0x0 CALLDATALOAD PUSH1 0xE0 SHR SWAP1 DUP2 PUSH4 0xB8A295A EQ PUSH2 0x21A3 JUMPI POP DUP1 PUSH4 0x1F1FC4E3 EQ PUSH2 0x2155 JUMPI DUP1 PUSH4 0x524E8462 EQ PUSH2 0x2065 JUMPI DUP1 PUSH4 0x570AEA8A EQ PUSH2 0x2047 JUMPI DUP1 PUSH4 0x602C9745 EQ PUSH2 0x1FE3 JUMPI DUP1 PUSH4 0x715018A6 EQ PUSH2 0x1F8A JUMPI DUP1 PUSH4 0x7ACC0B20 EQ PUSH2 0x1D49 JUMPI DUP1 PUSH4 0x8DA5CB5B EQ PUSH2 0x1D20 JUMPI DUP1 PUSH4 0x92CDFCD5 EQ PUSH2 0x1B41 JUMPI DUP1 PUSH4 0xB9DB15B4 EQ PUSH2 0x1793 JUMPI DUP1 PUSH4 0xCB51BBA9 EQ PUSH2 0x175B JUMPI DUP1 PUSH4 0xF2FDE38B EQ PUSH2 0x1690 JUMPI PUSH4 0xFBFB988E EQ PUSH2 0xAF JUMPI PUSH1 0x0 DUP1 REVERT JUMPDEST CALLVALUE PUSH2 0x168B JUMPI PUSH2 0x1E0 CALLDATASIZE PUSH1 0x3 NOT ADD SLT PUSH2 0x168B JUMPI PUSH1 0x24 CALLDATALOAD PUSH1 0x1 PUSH1 0x1 PUSH1 0x40 SHL SUB DUP2 GT PUSH2 0x168B JUMPI PUSH2 0xE0 SWAP1 CALLDATASIZE SWAP1 PUSH1 0x4 ADD PUSH2 0x237A JUMP JUMPDEST PUSH1 0x44 CALLDATALOAD PUSH1 0x1 PUSH1 0x1 PUSH1 0x40 SHL SUB DUP2 GT PUSH2 0x168B JUMPI PUSH2 0xFF SWAP1 CALLDATASIZE SWAP1 PUSH1 0x4 ADD PUSH2 0x237A JUMP JUMPDEST PUSH1 0x64 CALLDATALOAD PUSH1 0x1 PUSH1 0x1 PUSH1 0x40 SHL SUB DUP2 GT PUSH2 0x168B JUMPI PUSH2 0x11E SWAP1 CALLDATASIZE SWAP1 PUSH1 0x4 ADD PUSH2 0x237A JUMP JUMPDEST PUSH1 0x84 CALLDATALOAD PUSH1 0x1 PUSH1 0x1 PUSH1 0x40 SHL SUB DUP2 GT PUSH2 0x168B JUMPI PUSH2 0x13D SWAP1 CALLDATASIZE SWAP1 PUSH1 0x4 ADD PUSH2 0x237A JUMP JUMPDEST PUSH1 0xA4 CALLDATALOAD PUSH1 0x1 PUSH1 0x1 PUSH1 0x40 SHL SUB DUP2 GT PUSH2 0x168B JUMPI PUSH2 0x15C SWAP1 CALLDATASIZE SWAP1 PUSH1 0x4 ADD PUSH2 0x237A JUMP JUMPDEST PUSH1 0xC4 CALLDATALOAD PUSH1 0x1 PUSH1 0x1 PUSH1 0x40 SHL SUB DUP2 GT PUSH2 0x168B JUMPI PUSH2 0x17B SWAP1 CALLDATASIZE SWAP1 PUSH1 0x4 ADD PUSH2 0x237A JUMP JUMPDEST PUSH1 0xE4 CALLDATALOAD PUSH1 0x1 PUSH1 0x1 PUSH1 0x40 SHL SUB DUP2 GT PUSH2 0x168B JUMPI PUSH2 0x19A SWAP1 CALLDATASIZE SWAP1 PUSH1 0x4 ADD PUSH2 0x237A JUMP JUMPDEST PUSH2 0x104 CALLDATALOAD PUSH1 0x1 PUSH1 0x1 PUSH1 0x40 SHL SUB DUP2 GT PUSH2 0x168B JUMPI PUSH2 0x1BA SWAP1 CALLDATASIZE SWAP1 PUSH1 0x4 ADD PUSH2 0x237A JUMP JUMPDEST PUSH2 0x124 CALLDATALOAD PUSH1 0x1 PUSH1 0x1 PUSH1 0x40 SHL SUB DUP2 GT PUSH2 0x168B JUMPI PUSH2 0x1DA SWAP1 CALLDATASIZE SWAP1 PUSH1 0x4 ADD PUSH2 0x237A JUMP JUMPDEST PUSH2 0x144 CALLDATALOAD PUSH1 0x1 PUSH1 0x1 PUSH1 0x40 SHL SUB DUP2 GT PUSH2 0x168B JUMPI PUSH2 0x1FA SWAP1 CALLDATASIZE SWAP1 PUSH1 0x4 ADD PUSH2 0x237A JUMP JUMPDEST SWAP2 PUSH2 0x164 CALLDATALOAD PUSH1 0x1 PUSH1 0x1 PUSH1 0x40 SHL SUB DUP2 GT PUSH2 0x168B JUMPI PUSH2 0x21B SWAP1 CALLDATASIZE SWAP1 PUSH1 0x4 ADD PUSH2 0x237A JUMP JUMPDEST SWAP4 PUSH2 0x184 CALLDATALOAD PUSH1 0x1 PUSH1 0x1 PUSH1 0x40 SHL SUB DUP2 GT PUSH2 0x168B JUMPI PUSH2 0x23C SWAP1 CALLDATASIZE SWAP1 PUSH1 0x4 ADD PUSH2 0x237A JUMP JUMPDEST SWAP6 PUSH1 0x1 PUSH1 0x1 PUSH1 0x40 SHL SUB PUSH2 0x1A4 CALLDATALOAD GT PUSH2 0x168B JUMPI PUSH2 0x25E CALLDATASIZE PUSH2 0x1A4 CALLDATALOAD PUSH1 0x4 ADD PUSH2 0x237A JUMP JUMPDEST SWAP8 PUSH2 0x1C4 CALLDATALOAD PUSH1 0x1 PUSH1 0x1 PUSH1 0x40 SHL SUB DUP2 GT PUSH2 0x168B JUMPI PUSH2 0x27F SWAP1 CALLDATASIZE SWAP1 PUSH1 0x4 ADD PUSH2 0x237A JUMP JUMPDEST SWAP10 PUSH2 0x288 PUSH2 0x23D0 JUMP JUMPDEST PUSH1 0x2 PUSH1 0x1 SLOAD EQ PUSH2 0x1646 JUMPI PUSH1 0x2 PUSH1 0x1 SSTORE PUSH1 0x4 CALLDATALOAD PUSH1 0x0 MSTORE PUSH1 0x4 PUSH1 0x20 MSTORE PUSH1 0xFF PUSH1 0x40 PUSH1 0x0 KECCAK256 SLOAD AND PUSH2 0x1601 JUMPI PUSH1 0x4 CALLDATALOAD ISZERO PUSH2 0x15B2 JUMPI DUP14 MLOAD ISZERO PUSH2 0x156D JUMPI DUP13 MLOAD ISZERO PUSH2 0x1528 JUMPI DUP1 MLOAD ISZERO PUSH2 0x14E3 JUMPI DUP14 SWAP12 DUP14 PUSH1 0x40 DUP1 MLOAD SWAP15 DUP16 SWAP1 PUSH2 0x2DF DUP3 PUSH2 0x220A JUMP JUMPDEST PUSH1 0x4 CALLDATALOAD DUP3 MSTORE PUSH1 0x20 DUP3 ADD MSTORE ADD MSTORE PUSH1 0x60 DUP14 ADD MSTORE PUSH1 0x80 DUP13 ADD MSTORE PUSH1 0xA0 DUP12 ADD MSTORE PUSH1 0xC0 DUP11 ADD MSTORE PUSH1 0xE0 DUP10 ADD MSTORE PUSH2 0x100 DUP9 ADD MSTORE PUSH2 0x120 DUP8 ADD MSTORE PUSH2 0x140 DUP7 ADD MSTORE PUSH2 0x160 DUP6 ADD MSTORE PUSH2 0x180 DUP5 ADD MSTORE PUSH2 0x1A0 DUP4 ADD MSTORE PUSH2 0x1C0 DUP3 ADD MSTORE TIMESTAMP PUSH2 0x1E0 DUP3 ADD MSTORE PUSH1 0x0 PUSH2 0x200 DUP3 ADD MSTORE PUSH1 0x0 PUSH2 0x220 DUP3 ADD MSTORE PUSH1 0x4 CALLDATALOAD PUSH1 0x0 MSTORE PUSH1 0x2 PUSH1 0x20 MSTORE PUSH1 0x40 PUSH1 0x0 KECCAK256 DUP2 MLOAD DUP2 SSTORE PUSH1 0x20 DUP3 ADD MLOAD DUP1 MLOAD SWAP1 PUSH1 0x1 PUSH1 0x1 PUSH1 0x40 SHL SUB DUP3 GT PUSH2 0x975 JUMPI DUP2 SWAP1 PUSH2 0x37E PUSH1 0x1 DUP6 ADD SLOAD PUSH2 0x21D0 JUMP JUMPDEST PUSH1 0x1F DUP2 GT PUSH2 0x1490 JUMPI JUMPDEST POP PUSH1 0x20 SWAP1 PUSH1 0x1F DUP4 GT PUSH1 0x1 EQ PUSH2 0x141E JUMPI PUSH1 0x0 SWAP3 PUSH2 0x1413 JUMPI JUMPDEST POP POP DUP2 PUSH1 0x1 SHL SWAP2 PUSH1 0x0 NOT SWAP1 PUSH1 0x3 SHL SHR NOT AND OR PUSH1 0x1 DUP3 ADD SSTORE JUMPDEST PUSH1 0x40 DUP3 ADD MLOAD DUP1 MLOAD SWAP1 PUSH1 0x1 PUSH1 0x1 PUSH1 0x40 SHL SUB DUP3 GT PUSH2 0x975 JUMPI DUP2 SWAP1 PUSH2 0x3DB PUSH1 0x2 DUP6 ADD SLOAD PUSH2 0x21D0 JUMP JUMPDEST PUSH1 0x1F DUP2 GT PUSH2 0x13C0 JUMPI JUMPDEST POP PUSH1 0x20 SWAP1 PUSH1 0x1F DUP4 GT PUSH1 0x1 EQ PUSH2 0x134E JUMPI PUSH1 0x0 SWAP3 PUSH2 0x1343 JUMPI JUMPDEST POP POP DUP2 PUSH1 0x1 SHL SWAP2 PUSH1 0x0 NOT SWAP1 PUSH1 0x3 SHL SHR NOT AND OR PUSH1 0x2 DUP3 ADD SSTORE JUMPDEST PUSH1 0x60 DUP3 ADD MLOAD DUP1 MLOAD SWAP1 PUSH1 0x1 PUSH1 0x1 PUSH1 0x40 SHL SUB DUP3 GT PUSH2 0x975 JUMPI DUP2 SWAP1 PUSH2 0x438 PUSH1 0x3 DUP6 ADD SLOAD PUSH2 0x21D0 JUMP JUMPDEST PUSH1 0x1F DUP2 GT PUSH2 0x12F0 JUMPI JUMPDEST POP PUSH1 0x20 SWAP1 PUSH1 0x1F DUP4 GT PUSH1 0x1 EQ PUSH2 0x127E JUMPI PUSH1 0x0 SWAP3 PUSH2 0x1273 JUMPI JUMPDEST POP POP DUP2 PUSH1 0x1 SHL SWAP2 PUSH1 0x0 NOT SWAP1 PUSH1 0x3 SHL SHR NOT AND OR PUSH1 0x3 DUP3 ADD SSTORE JUMPDEST PUSH1 0x80 DUP3 ADD MLOAD DUP1 MLOAD SWAP1 PUSH1 0x1 PUSH1 0x1 PUSH1 0x40 SHL SUB DUP3 GT PUSH2 0x975 JUMPI DUP2 SWAP1 PUSH2 0x495 PUSH1 0x4 DUP6 ADD SLOAD PUSH2 0x21D0 JUMP JUMPDEST PUSH1 0x1F DUP2 GT PUSH2 0x1220 JUMPI JUMPDEST POP PUSH1 0x20 SWAP1 PUSH1 0x1F DUP4 GT PUSH1 0x1 EQ PUSH2 0x11AE JUMPI PUSH1 0x0 SWAP3 PUSH2 0x11A3 JUMPI JUMPDEST POP POP DUP2 PUSH1 0x1 SHL SWAP2 PUSH1 0x0 NOT SWAP1 PUSH1 0x3 SHL SHR NOT AND OR PUSH1 0x4 DUP3 ADD SSTORE JUMPDEST PUSH1 0xA0 DUP3 ADD MLOAD DUP1 MLOAD SWAP1 PUSH1 0x1 PUSH1 0x1 PUSH1 0x40 SHL SUB DUP3 GT PUSH2 0x975 JUMPI DUP2 SWAP1 PUSH2 0x4F2 PUSH1 0x5 DUP6 ADD SLOAD PUSH2 0x21D0 JUMP JUMPDEST PUSH1 0x1F DUP2 GT PUSH2 0x1150 JUMPI JUMPDEST POP PUSH1 0x20 SWAP1 PUSH1 0x1F DUP4 GT PUSH1 0x1 EQ PUSH2 0x10DE JUMPI PUSH1 0x0 SWAP3 PUSH2 0x10D3 JUMPI JUMPDEST POP POP DUP2 PUSH1 0x1 SHL SWAP2 PUSH1 0x0 NOT SWAP1 PUSH1 0x3 SHL SHR NOT AND OR PUSH1 0x5 DUP3 ADD SSTORE JUMPDEST PUSH1 0xC0 DUP3 ADD MLOAD DUP1 MLOAD SWAP1 PUSH1 0x1 PUSH1 0x1 PUSH1 0x40 SHL SUB DUP3 GT PUSH2 0x975 JUMPI DUP2 SWAP1 PUSH2 0x54F PUSH1 0x6 DUP6 ADD SLOAD PUSH2 0x21D0 JUMP JUMPDEST PUSH1 0x1F DUP2 GT PUSH2 0x1080 JUMPI JUMPDEST POP PUSH1 0x20 SWAP1 PUSH1 0x1F DUP4 GT PUSH1 0x1 EQ PUSH2 0x100E JUMPI PUSH1 0x0 SWAP3 PUSH2 0x1003 JUMPI JUMPDEST POP POP DUP2 PUSH1 0x1 SHL SWAP2 PUSH1 0x0 NOT SWAP1 PUSH1 0x3 SHL SHR NOT AND OR PUSH1 0x6 DUP3 ADD SSTORE JUMPDEST PUSH1 0xE0 DUP3 ADD MLOAD DUP1 MLOAD SWAP1 PUSH1 0x1 PUSH1 0x1 PUSH1 0x40 SHL SUB DUP3 GT PUSH2 0x975 JUMPI DUP2 SWAP1 PUSH2 0x5AC PUSH1 0x7 DUP6 ADD SLOAD PUSH2 0x21D0 JUMP JUMPDEST PUSH1 0x1F DUP2 GT PUSH2 0xFB0 JUMPI JUMPDEST POP PUSH1 0x20 SWAP1 PUSH1 0x1F DUP4 GT PUSH1 0x1 EQ PUSH2 0xF3E JUMPI PUSH1 0x0 SWAP3 PUSH2 0xF33 JUMPI JUMPDEST POP POP DUP2 PUSH1 0x1 SHL SWAP2 PUSH1 0x0 NOT SWAP1 PUSH1 0x3 SHL SHR NOT AND OR PUSH1 0x7 DUP3 ADD SSTORE JUMPDEST PUSH2 0x100 DUP3 ADD MLOAD DUP1 MLOAD SWAP1 PUSH1 0x1 PUSH1 0x1 PUSH1 0x40 SHL SUB DUP3 GT PUSH2 0x975 JUMPI DUP2 SWAP1 PUSH2 0x60A PUSH1 0x8 DUP6 ADD SLOAD PUSH2 0x21D0 JUMP JUMPDEST PUSH1 0x1F DUP2 GT PUSH2 0xEE0 JUMPI JUMPDEST POP PUSH1 0x20 SWAP1 PUSH1 0x1F DUP4 GT PUSH1 0x1 EQ PUSH2 0xE6E JUMPI PUSH1 0x0 SWAP3 PUSH2 0xE63 JUMPI JUMPDEST POP POP DUP2 PUSH1 0x1 SHL SWAP2 PUSH1 0x0 NOT SWAP1 PUSH1 0x3 SHL SHR NOT AND OR PUSH1 0x8 DUP3 ADD SSTORE JUMPDEST PUSH2 0x120 DUP3 ADD MLOAD DUP1 MLOAD SWAP1 PUSH1 0x1 PUSH1 0x1 PUSH1 0x40 SHL SUB DUP3 GT PUSH2 0x975 JUMPI DUP2 SWAP1 PUSH2 0x668 PUSH1 0x9 DUP6 ADD SLOAD PUSH2 0x21D0 JUMP JUMPDEST PUSH1 0x1F DUP2 GT PUSH2 0xE10 JUMPI JUMPDEST POP PUSH1 0x20 SWAP1 PUSH1 0x1F DUP4 GT PUSH1 0x1 EQ PUSH2 0xD9E JUMPI PUSH1 0x0 SWAP3 PUSH2 0xD93 JUMPI JUMPDEST POP POP DUP2 PUSH1 0x1 SHL SWAP2 PUSH1 0x0 NOT SWAP1 PUSH1 0x3 SHL SHR NOT AND OR PUSH1 0x9 DUP3 ADD SSTORE JUMPDEST PUSH2 0x140 DUP3 ADD MLOAD DUP1 MLOAD SWAP1 PUSH1 0x1 PUSH1 0x1 PUSH1 0x40 SHL SUB DUP3 GT PUSH2 0x975 JUMPI DUP2 SWAP1 PUSH2 0x6C6 PUSH1 0xA DUP6 ADD SLOAD PUSH2 0x21D0 JUMP JUMPDEST PUSH1 0x1F DUP2 GT PUSH2 0xD40 JUMPI JUMPDEST POP PUSH1 0x20 SWAP1 PUSH1 0x1F DUP4 GT PUSH1 0x1 EQ PUSH2 0xCCE JUMPI PUSH1 0x0 SWAP3 PUSH2 0xCC3 JUMPI JUMPDEST POP POP DUP2 PUSH1 0x1 SHL SWAP2 PUSH1 0x0 NOT SWAP1 PUSH1 0x3 SHL SHR NOT AND OR PUSH1 0xA DUP3 ADD SSTORE JUMPDEST PUSH2 0x160 DUP3 ADD MLOAD DUP1 MLOAD SWAP1 PUSH1 0x1 PUSH1 0x1 PUSH1 0x40 SHL SUB DUP3 GT PUSH2 0x975 JUMPI DUP2 SWAP1 PUSH2 0x724 PUSH1 0xB DUP6 ADD SLOAD PUSH2 0x21D0 JUMP JUMPDEST PUSH1 0x1F DUP2 GT PUSH2 0xC70 JUMPI JUMPDEST POP PUSH1 0x20 SWAP1 PUSH1 0x1F DUP4 GT PUSH1 0x1 EQ PUSH2 0xBFE JUMPI PUSH1 0x0 SWAP3 PUSH2 0xBF3 JUMPI JUMPDEST POP POP DUP2 PUSH1 0x1 SHL SWAP2 PUSH1 0x0 NOT SWAP1 PUSH1 0x3 SHL SHR NOT AND OR PUSH1 0xB DUP3 ADD SSTORE JUMPDEST PUSH2 0x180 DUP3 ADD MLOAD DUP1 MLOAD SWAP1 PUSH1 0x1 PUSH1 0x1 PUSH1 0x40 SHL SUB DUP3 GT PUSH2 0x975 JUMPI DUP2 SWAP1 PUSH2 0x782 PUSH1 0xC DUP6 ADD SLOAD PUSH2 0x21D0 JUMP JUMPDEST PUSH1 0x1F DUP2 GT PUSH2 0xBA0 JUMPI JUMPDEST POP PUSH1 0x20 SWAP1 PUSH1 0x1F DUP4 GT PUSH1 0x1 EQ PUSH2 0xB2E JUMPI PUSH1 0x0 SWAP3 PUSH2 0xB23 JUMPI JUMPDEST POP POP DUP2 PUSH1 0x1 SHL SWAP2 PUSH1 0x0 NOT SWAP1 PUSH1 0x3 SHL SHR NOT AND OR PUSH1 0xC DUP3 ADD SSTORE JUMPDEST PUSH2 0x1A0 DUP3 ADD MLOAD DUP1 MLOAD SWAP1 PUSH1 0x1 PUSH1 0x1 PUSH1 0x40 SHL SUB DUP3 GT PUSH2 0x975 JUMPI DUP2 SWAP1 PUSH2 0x7E0 PUSH1 0xD DUP6 ADD SLOAD PUSH2 0x21D0 JUMP JUMPDEST PUSH1 0x1F DUP2 GT PUSH2 0xAD0 JUMPI JUMPDEST POP PUSH1 0x20 SWAP1 PUSH1 0x1F DUP4 GT PUSH1 0x1 EQ PUSH2 0xA5E JUMPI PUSH1 0x0 SWAP3 PUSH2 0xA53 JUMPI JUMPDEST POP POP DUP2 PUSH1 0x1 SHL SWAP2 PUSH1 0x0 NOT SWAP1 PUSH1 0x3 SHL SHR NOT AND OR PUSH1 0xD DUP3 ADD SSTORE JUMPDEST PUSH2 0x1C0 DUP3 ADD MLOAD DUP1 MLOAD SWAP1 PUSH1 0x1 PUSH1 0x1 PUSH1 0x40 SHL SUB DUP3 GT PUSH2 0x975 JUMPI PUSH2 0x83C PUSH1 0xE DUP5 ADD SLOAD PUSH2 0x21D0 JUMP JUMPDEST PUSH1 0x1F DUP2 GT PUSH2 0xA0C JUMPI JUMPDEST POP PUSH1 0x20 SWAP1 PUSH1 0x1F DUP4 GT PUSH1 0x1 EQ PUSH2 0x996 JUMPI SWAP2 DUP1 PUSH2 0x8CA SWAP5 SWAP3 PUSH1 0x10 SWAP5 PUSH1 0x0 SWAP3 PUSH2 0x98B JUMPI JUMPDEST POP POP DUP2 PUSH1 0x1 SHL SWAP2 PUSH1 0x0 NOT SWAP1 PUSH1 0x3 SHL SHR NOT AND OR PUSH1 0xE DUP3 ADD SSTORE JUMPDEST PUSH2 0x1E0 DUP5 ADD MLOAD PUSH1 0xF DUP3 ADD SSTORE PUSH2 0x200 DUP5 ADD MLOAD SWAP2 ADD DUP1 SLOAD PUSH2 0x220 SWAP1 SWAP5 ADD MLOAD PUSH2 0x100 PUSH1 0x1 PUSH1 0xA8 SHL SUB PUSH1 0x8 SWAP2 SWAP1 SWAP2 SHL AND SWAP2 ISZERO ISZERO PUSH1 0xFF AND PUSH1 0x1 PUSH1 0x1 PUSH1 0xA8 SHL SUB NOT SWAP1 SWAP5 AND SWAP4 SWAP1 SWAP4 OR OR SWAP1 SWAP2 SSTORE PUSH1 0xFF NOT SWAP1 JUMP JUMPDEST PUSH1 0x3 SLOAD PUSH9 0x10000000000000000 DUP2 LT ISZERO PUSH2 0x975 JUMPI DUP1 PUSH1 0x1 PUSH2 0x8EE SWAP3 ADD PUSH1 0x3 SSTORE PUSH2 0x232D JUMP JUMPDEST DUP2 SLOAD SWAP1 PUSH1 0x3 SHL SWAP1 PUSH1 0x4 CALLDATALOAD DUP3 SHL SWAP2 PUSH1 0x0 NOT SWAP1 SHL NOT AND OR SWAP1 SSTORE PUSH1 0x4 CALLDATALOAD PUSH1 0x0 MSTORE PUSH1 0x4 PUSH1 0x20 MSTORE PUSH1 0x1 PUSH1 0x40 PUSH1 0x0 KECCAK256 SWAP2 DUP3 SLOAD AND OR SWAP1 SSTORE PUSH32 0x3B57B518FCAC2F7B307764DE2A4B23B8543199FBD772F419DCB5A470EDBC0BA7 PUSH2 0x954 PUSH1 0x40 MLOAD SWAP4 PUSH1 0x40 DUP6 MSTORE PUSH1 0x40 DUP6 ADD SWAP1 PUSH2 0x22ED JUMP JUMPDEST SWAP3 DUP1 DUP5 SUB PUSH1 0x20 DUP3 ADD MSTORE DUP1 PUSH2 0x96C CALLER SWAP6 PUSH1 0x4 CALLDATALOAD SWAP6 PUSH2 0x22ED JUMP JUMPDEST SUB SWAP1 LOG3 PUSH1 0x1 DUP1 SSTORE STOP JUMPDEST PUSH4 0x4E487B71 PUSH1 0xE0 SHL PUSH1 0x0 MSTORE PUSH1 0x41 PUSH1 0x4 MSTORE PUSH1 0x24 PUSH1 0x0 REVERT JUMPDEST ADD MLOAD SWAP1 POP CODESIZE DUP1 PUSH2 0x866 JUMP JUMPDEST SWAP1 PUSH1 0xE DUP5 ADD PUSH1 0x0 MSTORE PUSH1 0x20 PUSH1 0x0 KECCAK256 SWAP2 PUSH1 0x0 JUMPDEST PUSH1 0x1F NOT DUP6 AND DUP2 LT PUSH2 0x9F4 JUMPI POP SWAP3 PUSH2 0x8CA SWAP5 SWAP3 PUSH1 0x1 SWAP3 PUSH1 0x10 SWAP6 DUP4 PUSH1 0x1F NOT DUP2 AND LT PUSH2 0x9DB JUMPI JUMPDEST POP POP POP DUP2 SHL ADD PUSH1 0xE DUP3 ADD SSTORE PUSH2 0x87E JUMP JUMPDEST ADD MLOAD PUSH1 0x0 NOT PUSH1 0xF8 DUP5 PUSH1 0x3 SHL AND SHR NOT AND SWAP1 SSTORE CODESIZE DUP1 DUP1 PUSH2 0x9CB JUMP JUMPDEST SWAP2 SWAP3 PUSH1 0x20 PUSH1 0x1 DUP2 SWAP3 DUP7 DUP6 ADD MLOAD DUP2 SSTORE ADD SWAP5 ADD SWAP3 ADD PUSH2 0x9A7 JUMP JUMPDEST PUSH1 0xE DUP5 ADD PUSH1 0x0 MSTORE PUSH1 0x20 PUSH1 0x0 KECCAK256 PUSH1 0x1F DUP5 ADD PUSH1 0x5 SHR DUP2 ADD PUSH1 0x20 DUP6 LT PUSH2 0xA4C JUMPI JUMPDEST PUSH1 0x1F DUP4 ADD PUSH1 0x5 SHR DUP3 ADD DUP2 LT PUSH2 0xA40 JUMPI POP POP PUSH2 0x845 JUMP JUMPDEST PUSH1 0x0 DUP2 SSTORE PUSH1 0x1 ADD PUSH2 0xA2A JUMP JUMPDEST POP DUP1 PUSH2 0xA2A JUMP JUMPDEST ADD MLOAD SWAP1 POP CODESIZE DUP1 PUSH2 0x800 JUMP JUMPDEST SWAP3 POP PUSH1 0xD DUP5 ADD PUSH1 0x0 MSTORE PUSH1 0x20 PUSH1 0x0 KECCAK256 SWAP1 PUSH1 0x0 SWAP4 JUMPDEST PUSH1 0x1F NOT DUP5 AND DUP6 LT PUSH2 0xAB5 JUMPI PUSH1 0x1 SWAP5 POP DUP4 PUSH1 0x1F NOT DUP2 AND LT PUSH2 0xA9C JUMPI JUMPDEST POP POP POP DUP2 SHL ADD PUSH1 0xD DUP3 ADD SSTORE PUSH2 0x818 JUMP JUMPDEST ADD MLOAD PUSH1 0x0 NOT PUSH1 0xF8 DUP5 PUSH1 0x3 SHL AND SHR NOT AND SWAP1 SSTORE CODESIZE DUP1 DUP1 PUSH2 0xA8C JUMP JUMPDEST DUP2 DUP2 ADD MLOAD DUP4 SSTORE PUSH1 0x20 SWAP5 DUP6 ADD SWAP5 PUSH1 0x1 SWAP1 SWAP4 ADD SWAP3 SWAP1 SWAP2 ADD SWAP1 PUSH2 0xA71 JUMP JUMPDEST SWAP1 SWAP2 POP PUSH1 0xD DUP5 ADD PUSH1 0x0 MSTORE PUSH1 0x20 PUSH1 0x0 KECCAK256 PUSH1 0x1F DUP5 ADD PUSH1 0x5 SHR DUP2 ADD PUSH1 0x20 DUP6 LT PUSH2 0xB1C JUMPI JUMPDEST SWAP1 DUP5 SWAP4 SWAP3 SWAP2 JUMPDEST PUSH1 0x1F DUP4 ADD PUSH1 0x5 SHR DUP3 ADD DUP2 LT PUSH2 0xB0D JUMPI POP POP PUSH2 0x7E9 JUMP JUMPDEST PUSH1 0x0 DUP2 SSTORE DUP6 SWAP5 POP PUSH1 0x1 ADD PUSH2 0xAF7 JUMP JUMPDEST POP DUP1 PUSH2 0xAF1 JUMP JUMPDEST ADD MLOAD SWAP1 POP CODESIZE DUP1 PUSH2 0x7A2 JUMP JUMPDEST SWAP3 POP PUSH1 0xC DUP5 ADD PUSH1 0x0 MSTORE PUSH1 0x20 PUSH1 0x0 KECCAK256 SWAP1 PUSH1 0x0 SWAP4 JUMPDEST PUSH1 0x1F NOT DUP5 AND DUP6 LT PUSH2 0xB85 JUMPI PUSH1 0x1 SWAP5 POP DUP4 PUSH1 0x1F NOT DUP2 AND LT PUSH2 0xB6C JUMPI JUMPDEST POP POP POP DUP2 SHL ADD PUSH1 0xC DUP3 ADD SSTORE PUSH2 0x7BA JUMP JUMPDEST ADD MLOAD PUSH1 0x0 NOT PUSH1 0xF8 DUP5 PUSH1 0x3 SHL AND SHR NOT AND SWAP1 SSTORE CODESIZE DUP1 DUP1 PUSH2 0xB5C JUMP JUMPDEST DUP2 DUP2 ADD MLOAD DUP4 SSTORE PUSH1 0x20 SWAP5 DUP6 ADD SWAP5 PUSH1 0x1 SWAP1 SWAP4 ADD SWAP3 SWAP1 SWAP2 ADD SWAP1 PUSH2 0xB41 JUMP JUMPDEST SWAP1 SWAP2 POP PUSH1 0xC DUP5 ADD PUSH1 0x0 MSTORE PUSH1 0x20 PUSH1 0x0 KECCAK256 PUSH1 0x1F DUP5 ADD PUSH1 0x5 SHR DUP2 ADD PUSH1 0x20 DUP6 LT PUSH2 0xBEC JUMPI JUMPDEST SWAP1 DUP5 SWAP4 SWAP3 SWAP2 JUMPDEST PUSH1 0x1F DUP4 ADD PUSH1 0x5 SHR DUP3 ADD DUP2 LT PUSH2 0xBDD JUMPI POP POP PUSH2 0x78B JUMP JUMPDEST PUSH1 0x0 DUP2 SSTORE DUP6 SWAP5 POP PUSH1 0x1 ADD PUSH2 0xBC7 JUMP JUMPDEST POP DUP1 PUSH2 0xBC1 JUMP JUMPDEST ADD MLOAD SWAP1 POP CODESIZE DUP1 PUSH2 0x744 JUMP JUMPDEST SWAP3 POP PUSH1 0xB DUP5 ADD PUSH1 0x0 MSTORE PUSH1 0x20 PUSH1 0x0 KECCAK256 SWAP1 PUSH1 0x0 SWAP4 JUMPDEST PUSH1 0x1F NOT DUP5 AND DUP6 LT PUSH2 0xC55 JUMPI PUSH1 0x1 SWAP5 POP DUP4 PUSH1 0x1F NOT DUP2 AND LT PUSH2 0xC3C JUMPI JUMPDEST POP POP POP DUP2 SHL ADD PUSH1 0xB DUP3 ADD SSTORE PUSH2 0x75C JUMP JUMPDEST ADD MLOAD PUSH1 0x0 NOT PUSH1 0xF8 DUP5 PUSH1 0x3 SHL AND SHR NOT AND SWAP1 SSTORE CODESIZE DUP1 DUP1 PUSH2 0xC2C JUMP JUMPDEST DUP2 DUP2 ADD MLOAD DUP4 SSTORE PUSH1 0x20 SWAP5 DUP6 ADD SWAP5 PUSH1 0x1 SWAP1 SWAP4 ADD SWAP3 SWAP1 SWAP2 ADD SWAP1 PUSH2 0xC11 JUMP JUMPDEST SWAP1 SWAP2 POP PUSH1 0xB DUP5 ADD PUSH1 0x0 MSTORE PUSH1 0x20 PUSH1 0x0 KECCAK256 PUSH1 0x1F DUP5 ADD PUSH1 0x5 SHR DUP2 ADD PUSH1 0x20 DUP6 LT PUSH2 0xCBC JUMPI JUMPDEST SWAP1 DUP5 SWAP4 SWAP3 SWAP2 JUMPDEST PUSH1 0x1F DUP4 ADD PUSH1 0x5 SHR DUP3 ADD DUP2 LT PUSH2 0xCAD JUMPI POP POP PUSH2 0x72D JUMP JUMPDEST PUSH1 0x0 DUP2 SSTORE DUP6 SWAP5 POP PUSH1 0x1 ADD PUSH2 0xC97 JUMP JUMPDEST POP DUP1 PUSH2 0xC91 JUMP JUMPDEST ADD MLOAD SWAP1 POP CODESIZE DUP1 PUSH2 0x6E6 JUMP JUMPDEST SWAP3 POP PUSH1 0xA DUP5 ADD PUSH1 0x0 MSTORE PUSH1 0x20 PUSH1 0x0 KECCAK256 SWAP1 PUSH1 0x0 SWAP4 JUMPDEST PUSH1 0x1F NOT DUP5 AND DUP6 LT PUSH2 0xD25 JUMPI PUSH1 0x1 SWAP5 POP DUP4 PUSH1 0x1F NOT DUP2 AND LT PUSH2 0xD0C JUMPI JUMPDEST POP POP POP DUP2 SHL ADD PUSH1 0xA DUP3 ADD SSTORE PUSH2 0x6FE JUMP JUMPDEST ADD MLOAD PUSH1 0x0 NOT PUSH1 0xF8 DUP5 PUSH1 0x3 SHL AND SHR NOT AND SWAP1 SSTORE CODESIZE DUP1 DUP1 PUSH2 0xCFC JUMP JUMPDEST DUP2 DUP2 ADD MLOAD DUP4 SSTORE PUSH1 0x20 SWAP5 DUP6 ADD SWAP5 PUSH1 0x1 SWAP1 SWAP4 ADD SWAP3 SWAP1 SWAP2 ADD SWAP1 PUSH2 0xCE1 JUMP JUMPDEST SWAP1 SWAP2 POP PUSH1 0xA DUP5 ADD PUSH1 0x0 MSTORE PUSH1 0x20 PUSH1 0x0 KECCAK256 PUSH1 0x1F DUP5 ADD PUSH1 0x5 SHR DUP2 ADD PUSH1 0x20 DUP6 LT PUSH2 0xD8C JUMPI JUMPDEST SWAP1 DUP5 SWAP4 SWAP3 SWAP2 JUMPDEST PUSH1 0x1F DUP4 ADD PUSH1 0x5 SHR DUP3 ADD DUP2 LT PUSH2 0xD7D JUMPI POP POP PUSH2 0x6CF JUMP JUMPDEST PUSH1 0x0 DUP2 SSTORE DUP6 SWAP5 POP PUSH1 0x1 ADD PUSH2 0xD67 JUMP JUMPDEST POP DUP1 PUSH2 0xD61 JUMP JUMPDEST ADD MLOAD SWAP1 POP CODESIZE DUP1 PUSH2 0x688 JUMP JUMPDEST SWAP3 POP PUSH1 0x9 DUP5 ADD PUSH1 0x0 MSTORE PUSH1 0x20 PUSH1 0x0 KECCAK256 SWAP1 PUSH1 0x0 SWAP4 JUMPDEST PUSH1 0x1F NOT DUP5 AND DUP6 LT PUSH2 0xDF5 JUMPI PUSH1 0x1 SWAP5 POP DUP4 PUSH1 0x1F NOT DUP2 AND LT PUSH2 0xDDC JUMPI JUMPDEST POP POP POP DUP2 SHL ADD PUSH1 0x9 DUP3 ADD SSTORE PUSH2 0x6A0 JUMP JUMPDEST ADD MLOAD PUSH1 0x0 NOT PUSH1 0xF8 DUP5 PUSH1 0x3 SHL AND SHR NOT AND SWAP1 SSTORE CODESIZE DUP1 DUP1 PUSH2 0xDCC JUMP JUMPDEST DUP2 DUP2 ADD MLOAD DUP4 SSTORE PUSH1 0x20 SWAP5 DUP6 ADD SWAP5 PUSH1 0x1 SWAP1 SWAP4 ADD SWAP3 SWAP1 SWAP2 ADD SWAP1 PUSH2 0xDB1 JUMP JUMPDEST SWAP1 SWAP2 POP PUSH1 0x9 DUP5 ADD PUSH1 0x0 MSTORE PUSH1 0x20 PUSH1 0x0 KECCAK256 PUSH1 0x1F DUP5 ADD PUSH1 0x5 SHR DUP2 ADD PUSH1 0x20 DUP6 LT PUSH2 0xE5C JUMPI JUMPDEST SWAP1 DUP5 SWAP4 SWAP3 SWAP2 JUMPDEST PUSH1 0x1F DUP4 ADD PUSH1 0x5 SHR DUP3 ADD DUP2 LT PUSH2 0xE4D JUMPI POP POP PUSH2 0x671 JUMP JUMPDEST PUSH1 0x0 DUP2 SSTORE DUP6 SWAP5 POP PUSH1 0x1 ADD PUSH2 0xE37 JUMP JUMPDEST POP DUP1 PUSH2 0xE31 JUMP JUMPDEST ADD MLOAD SWAP1 POP CODESIZE DUP1 PUSH2 0x62A JUMP JUMPDEST SWAP3 POP PUSH1 0x8 DUP5 ADD PUSH1 0x0 MSTORE PUSH1 0x20 PUSH1 0x0 KECCAK256 SWAP1 PUSH1 0x0 SWAP4 JUMPDEST PUSH1 0x1F NOT DUP5 AND DUP6 LT PUSH2 0xEC5 JUMPI PUSH1 0x1 SWAP5 POP DUP4 PUSH1 0x1F NOT DUP2 AND LT PUSH2 0xEAC JUMPI JUMPDEST POP POP POP DUP2 SHL ADD PUSH1 0x8 DUP3 ADD SSTORE PUSH2 0x642 JUMP JUMPDEST ADD MLOAD PUSH1 0x0 NOT PUSH1 0xF8 DUP5 PUSH1 0x3 SHL AND SHR NOT AND SWAP1 SSTORE CODESIZE DUP1 DUP1 PUSH2 0xE9C JUMP JUMPDEST DUP2 DUP2 ADD MLOAD DUP4 SSTORE PUSH1 0x20 SWAP5 DUP6 ADD SWAP5 PUSH1 0x1 SWAP1 SWAP4 ADD SWAP3 SWAP1 SWAP2 ADD SWAP1 PUSH2 0xE81 JUMP JUMPDEST SWAP1 SWAP2 POP PUSH1 0x8 DUP5 ADD PUSH1 0x0 MSTORE PUSH1 0x20 PUSH1 0x0 KECCAK256 PUSH1 0x1F DUP5 ADD PUSH1 0x5 SHR DUP2 ADD PUSH1 0x20 DUP6 LT PUSH2 0xF2C JUMPI JUMPDEST SWAP1 DUP5 SWAP4 SWAP3 SWAP2 JUMPDEST PUSH1 0x1F DUP4 ADD PUSH1 0x5 SHR DUP3 ADD DUP2 LT PUSH2 0xF1D JUMPI POP POP PUSH2 0x613 JUMP JUMPDEST PUSH1 0x0 DUP2 SSTORE DUP6 SWAP5 POP PUSH1 0x1 ADD PUSH2 0xF07 JUMP JUMPDEST POP DUP1 PUSH2 0xF01 JUMP JUMPDEST ADD MLOAD SWAP1 POP CODESIZE DUP1 PUSH2 0x5CC JUMP JUMPDEST SWAP3 POP PUSH1 0x7 DUP5 ADD PUSH1 0x0 MSTORE PUSH1 0x20 PUSH1 0x0 KECCAK256 SWAP1 PUSH1 0x0 SWAP4 JUMPDEST PUSH1 0x1F NOT DUP5 AND DUP6 LT PUSH2 0xF95 JUMPI PUSH1 0x1 SWAP5 POP DUP4 PUSH1 0x1F NOT DUP2 AND LT PUSH2 0xF7C JUMPI JUMPDEST POP POP POP DUP2 SHL ADD PUSH1 0x7 DUP3 ADD SSTORE PUSH2 0x5E4 JUMP JUMPDEST ADD MLOAD PUSH1 0x0 NOT PUSH1 0xF8 DUP5 PUSH1 0x3 SHL AND SHR NOT AND SWAP1 SSTORE CODESIZE DUP1 DUP1 PUSH2 0xF6C JUMP JUMPDEST DUP2 DUP2 ADD MLOAD DUP4 SSTORE PUSH1 0x20 SWAP5 DUP6 ADD SWAP5 PUSH1 0x1 SWAP1 SWAP4 ADD SWAP3 SWAP1 SWAP2 ADD SWAP1 PUSH2 0xF51 JUMP JUMPDEST SWAP1 SWAP2 POP PUSH1 0x7 DUP5 ADD PUSH1 0x0 MSTORE PUSH1 0x20 PUSH1 0x0 KECCAK256 PUSH1 0x1F DUP5 ADD PUSH1 0x5 SHR DUP2 ADD PUSH1 0x20 DUP6 LT PUSH2 0xFFC JUMPI JUMPDEST SWAP1 DUP5 SWAP4 SWAP3 SWAP2 JUMPDEST PUSH1 0x1F DUP4 ADD PUSH1 0x5 SHR DUP3 ADD DUP2 LT PUSH2 0xFED JUMPI POP POP PUSH2 0x5B5 JUMP JUMPDEST PUSH1 0x0 DUP2 SSTORE DUP6 SWAP5 POP PUSH1 0x1 ADD PUSH2 0xFD7 JUMP JUMPDEST POP DUP1 PUSH2 0xFD1 JUMP JUMPDEST ADD MLOAD SWAP1 POP CODESIZE DUP1 PUSH2 0x56F JUMP JUMPDEST SWAP3 POP PUSH1 0x6 DUP5 ADD PUSH1 0x0 MSTORE PUSH1 0x20 PUSH1 0x0 KECCAK256 SWAP1 PUSH1 0x0 SWAP4 JUMPDEST PUSH1 0x1F NOT DUP5 AND DUP6 LT PUSH2 0x1065 JUMPI PUSH1 0x1 SWAP5 POP DUP4 PUSH1 0x1F NOT DUP2 AND LT PUSH2 0x104C JUMPI JUMPDEST POP POP POP DUP2 SHL ADD PUSH1 0x6 DUP3 ADD SSTORE PUSH2 0x587 JUMP JUMPDEST ADD MLOAD PUSH1 0x0 NOT PUSH1 0xF8 DUP5 PUSH1 0x3 SHL AND SHR NOT AND SWAP1 SSTORE CODESIZE DUP1 DUP1 PUSH2 0x103C JUMP JUMPDEST DUP2 DUP2 ADD MLOAD DUP4 SSTORE PUSH1 0x20 SWAP5 DUP6 ADD SWAP5 PUSH1 0x1 SWAP1 SWAP4 ADD SWAP3 SWAP1 SWAP2 ADD SWAP1 PUSH2 0x1021 JUMP JUMPDEST SWAP1 SWAP2 POP PUSH1 0x6 DUP5 ADD PUSH1 0x0 MSTORE PUSH1 0x20 PUSH1 0x0 KECCAK256 PUSH1 0x1F DUP5 ADD PUSH1 0x5 SHR DUP2 ADD PUSH1 0x20 DUP6 LT PUSH2 0x10CC JUMPI JUMPDEST SWAP1 DUP5 SWAP4 SWAP3 SWAP2 JUMPDEST PUSH1 0x1F DUP4 ADD PUSH1 0x5 SHR DUP3 ADD DUP2 LT PUSH2 0x10BD JUMPI POP POP PUSH2 0x558 JUMP JUMPDEST PUSH1 0x0 DUP2 SSTORE DUP6 SWAP5 POP PUSH1 0x1 ADD PUSH2 0x10A7 JUMP JUMPDEST POP DUP1 PUSH2 0x10A1 JUMP JUMPDEST ADD MLOAD SWAP1 POP CODESIZE DUP1 PUSH2 0x512 JUMP JUMPDEST SWAP3 POP PUSH1 0x5 DUP5 ADD PUSH1 0x0 MSTORE PUSH1 0x20 PUSH1 0x0 KECCAK256 SWAP1 PUSH1 0x0 SWAP4 JUMPDEST PUSH1 0x1F NOT DUP5 AND DUP6 LT PUSH2 0x1135 JUMPI PUSH1 0x1 SWAP5 POP DUP4 PUSH1 0x1F NOT DUP2 AND LT PUSH2 0x111C JUMPI JUMPDEST POP POP POP DUP2 SHL ADD PUSH1 0x5 DUP3 ADD SSTORE PUSH2 0x52A JUMP JUMPDEST ADD MLOAD PUSH1 0x0 NOT PUSH1 0xF8 DUP5 PUSH1 0x3 SHL AND SHR NOT AND SWAP1 SSTORE CODESIZE DUP1 DUP1 PUSH2 0x110C JUMP JUMPDEST DUP2 DUP2 ADD MLOAD DUP4 SSTORE PUSH1 0x20 SWAP5 DUP6 ADD SWAP5 PUSH1 0x1 SWAP1 SWAP4 ADD SWAP3 SWAP1 SWAP2 ADD SWAP1 PUSH2 0x10F1 JUMP JUMPDEST SWAP1 SWAP2 POP PUSH1 0x5 DUP5 ADD PUSH1 0x0 MSTORE PUSH1 0x20 PUSH1 0x0 KECCAK256 PUSH1 0x1F DUP5 ADD PUSH1 0x5 SHR DUP2 ADD PUSH1 0x20 DUP6 LT PUSH2 0x119C JUMPI JUMPDEST SWAP1 DUP5 SWAP4 SWAP3 SWAP2 JUMPDEST PUSH1 0x1F DUP4 ADD PUSH1 0x5 SHR DUP3 ADD DUP2 LT PUSH2 0x118D JUMPI POP POP PUSH2 0x4FB JUMP JUMPDEST PUSH1 0x0 DUP2 SSTORE DUP6 SWAP5 POP PUSH1 0x1 ADD PUSH2 0x1177 JUMP JUMPDEST POP DUP1 PUSH2 0x1171 JUMP JUMPDEST ADD MLOAD SWAP1 POP CODESIZE DUP1 PUSH2 0x4B5 JUMP JUMPDEST SWAP3 POP PUSH1 0x4 DUP5 ADD PUSH1 0x0 MSTORE PUSH1 0x20 PUSH1 0x0 KECCAK256 SWAP1 PUSH1 0x0 SWAP4 JUMPDEST PUSH1 0x1F NOT DUP5 AND DUP6 LT PUSH2 0x1205 JUMPI PUSH1 0x1 SWAP5 POP DUP4 PUSH1 0x1F NOT DUP2 AND LT PUSH2 0x11EC JUMPI JUMPDEST POP POP POP DUP2 SHL ADD PUSH1 0x4 DUP3 ADD SSTORE PUSH2 0x4CD JUMP JUMPDEST ADD MLOAD PUSH1 0x0 NOT PUSH1 0xF8 DUP5 PUSH1 0x3 SHL AND SHR NOT AND SWAP1 SSTORE CODESIZE DUP1 DUP1 PUSH2 0x11DC JUMP JUMPDEST DUP2 DUP2 ADD MLOAD DUP4 SSTORE PUSH1 0x20 SWAP5 DUP6 ADD SWAP5 PUSH1 0x1 SWAP1 SWAP4 ADD SWAP3 SWAP1 SWAP2 ADD SWAP1 PUSH2 0x11C1 JUMP JUMPDEST SWAP1 SWAP2 POP PUSH1 0x4 DUP5 ADD PUSH1 0x0 MSTORE PUSH1 0x20 PUSH1 0x0 KECCAK256 PUSH1 0x1F DUP5 ADD PUSH1 0x5 SHR DUP2 ADD PUSH1 0x20 DUP6 LT PUSH2 0x126C JUMPI JUMPDEST SWAP1 DUP5 SWAP4 SWAP3 SWAP2 JUMPDEST PUSH1 0x1F DUP4 ADD PUSH1 0x5 SHR DUP3 ADD DUP2 LT PUSH2 0x125D JUMPI POP POP PUSH2 0x49E JUMP JUMPDEST PUSH1 0x0 DUP2 SSTORE DUP6 SWAP5 POP PUSH1 0x1 ADD PUSH2 0x1247 JUMP JUMPDEST POP DUP1 PUSH2 0x1241 JUMP JUMPDEST ADD MLOAD SWAP1 POP CODESIZE DUP1 PUSH2 0x458 JUMP JUMPDEST SWAP3 POP PUSH1 0x3 DUP5 ADD PUSH1 0x0 MSTORE PUSH1 0x20 PUSH1 0x0 KECCAK256 SWAP1 PUSH1 0x0 SWAP4 JUMPDEST PUSH1 0x1F NOT DUP5 AND DUP6 LT PUSH2 0x12D5 JUMPI PUSH1 0x1 SWAP5 POP DUP4 PUSH1 0x1F NOT DUP2 AND LT PUSH2 0x12BC JUMPI JUMPDEST POP POP POP DUP2 SHL ADD PUSH1 0x3 DUP3 ADD SSTORE PUSH2 0x470 JUMP JUMPDEST ADD MLOAD PUSH1 0x0 NOT PUSH1 0xF8 DUP5 PUSH1 0x3 SHL AND SHR NOT AND SWAP1 SSTORE CODESIZE DUP1 DUP1 PUSH2 0x12AC JUMP JUMPDEST DUP2 DUP2 ADD MLOAD DUP4 SSTORE PUSH1 0x20 SWAP5 DUP6 ADD SWAP5 PUSH1 0x1 SWAP1 SWAP4 ADD SWAP3 SWAP1 SWAP2 ADD SWAP1 PUSH2 0x1291 JUMP JUMPDEST SWAP1 SWAP2 POP PUSH1 0x3 DUP5 ADD PUSH1 0x0 MSTORE PUSH1 0x20 PUSH1 0x0 KECCAK256 PUSH1 0x1F DUP5 ADD PUSH1 0x5 SHR DUP2 ADD PUSH1 0x20 DUP6 LT PUSH2 0x133C JUMPI JUMPDEST SWAP1 DUP5 SWAP4 SWAP3 SWAP2 JUMPDEST PUSH1 0x1F DUP4 ADD PUSH1 0x5 SHR DUP3 ADD DUP2 LT PUSH2 0x132D JUMPI POP POP PUSH2 0x441 JUMP JUMPDEST PUSH1 0x0 DUP2 SSTORE DUP6 SWAP5 POP PUSH1 0x1 ADD PUSH2 0x1317 JUMP JUMPDEST POP DUP1 PUSH2 0x1311 JUMP JUMPDEST ADD MLOAD SWAP1 POP CODESIZE DUP1 PUSH2 0x3FB JUMP JUMPDEST SWAP3 POP PUSH1 0x2 DUP5 ADD PUSH1 0x0 MSTORE PUSH1 0x20 PUSH1 0x0 KECCAK256 SWAP1 PUSH1 0x0 SWAP4 JUMPDEST PUSH1 0x1F NOT DUP5 AND DUP6 LT PUSH2 0x13A5 JUMPI PUSH1 0x1 SWAP5 POP DUP4 PUSH1 0x1F NOT DUP2 AND LT PUSH2 0x138C JUMPI JUMPDEST POP POP POP DUP2 SHL ADD PUSH1 0x2 DUP3 ADD SSTORE PUSH2 0x413 JUMP JUMPDEST ADD MLOAD PUSH1 0x0 NOT PUSH1 0xF8 DUP5 PUSH1 0x3 SHL AND SHR NOT AND SWAP1 SSTORE CODESIZE DUP1 DUP1 PUSH2 0x137C JUMP JUMPDEST DUP2 DUP2 ADD MLOAD DUP4 SSTORE PUSH1 0x20 SWAP5 DUP6 ADD SWAP5 PUSH1 0x1 SWAP1 SWAP4 ADD SWAP3 SWAP1 SWAP2 ADD SWAP1 PUSH2 0x1361 JUMP JUMPDEST SWAP1 SWAP2 POP PUSH1 0x2 DUP5 ADD PUSH1 0x0 MSTORE PUSH1 0x20 PUSH1 0x0 KECCAK256 PUSH1 0x1F DUP5 ADD PUSH1 0x5 SHR DUP2 ADD PUSH1 0x20 DUP6 LT PUSH2 0x140C JUMPI JUMPDEST SWAP1 DUP5 SWAP4 SWAP3 SWAP2 JUMPDEST PUSH1 0x1F DUP4 ADD PUSH1 0x5 SHR DUP3 ADD DUP2 LT PUSH2 0x13FD JUMPI POP POP PUSH2 0x3E4 JUMP JUMPDEST PUSH1 0x0 DUP2 SSTORE DUP6 SWAP5 POP PUSH1 0x1 ADD PUSH2 0x13E7 JUMP JUMPDEST POP DUP1 PUSH2 0x13E1 JUMP JUMPDEST ADD MLOAD SWAP1 POP CODESIZE DUP1 PUSH2 0x39E JUMP JUMPDEST SWAP3 POP PUSH1 0x1 DUP5 ADD PUSH1 0x0 MSTORE PUSH1 0x20 PUSH1 0x0 KECCAK256 SWAP1 PUSH1 0x0 SWAP4 JUMPDEST PUSH1 0x1F NOT DUP5 AND DUP6 LT PUSH2 0x1475 JUMPI PUSH1 0x1 SWAP5 POP DUP4 PUSH1 0x1F NOT DUP2 AND LT PUSH2 0x145C JUMPI JUMPDEST POP POP POP DUP2 SHL ADD PUSH1 0x1 DUP3 ADD SSTORE PUSH2 0x3B6 JUMP JUMPDEST ADD MLOAD PUSH1 0x0 NOT PUSH1 0xF8 DUP5 PUSH1 0x3 SHL AND SHR NOT AND SWAP1 SSTORE CODESIZE DUP1 DUP1 PUSH2 0x144C JUMP JUMPDEST DUP2 DUP2 ADD MLOAD DUP4 SSTORE PUSH1 0x20 SWAP5 DUP6 ADD SWAP5 PUSH1 0x1 SWAP1 SWAP4 ADD SWAP3 SWAP1 SWAP2 ADD SWAP1 PUSH2 0x1431 JUMP JUMPDEST SWAP1 SWAP2 POP PUSH1 0x1 DUP5 ADD PUSH1 0x0 MSTORE PUSH1 0x20 PUSH1 0x0 KECCAK256 PUSH1 0x1F DUP5 ADD PUSH1 0x5 SHR DUP2 ADD PUSH1 0x20 DUP6 LT PUSH2 0x14DC JUMPI JUMPDEST SWAP1 DUP5 SWAP4 SWAP3 SWAP2 JUMPDEST PUSH1 0x1F DUP4 ADD PUSH1 0x5 SHR DUP3 ADD DUP2 LT PUSH2 0x14CD JUMPI POP POP PUSH2 0x387 JUMP JUMPDEST PUSH1 0x0 DUP2 SSTORE DUP6 SWAP5 POP PUSH1 0x1 ADD PUSH2 0x14B7 JUMP JUMPDEST POP DUP1 PUSH2 0x14B1 JUMP JUMPDEST PUSH1 0x40 MLOAD PUSH3 0x461BCD PUSH1 0xE5 SHL DUP2 MSTORE PUSH1 0x20 PUSH1 0x4 DUP3 ADD MSTORE PUSH1 0x17 PUSH1 0x24 DUP3 ADD MSTORE PUSH32 0x56696C6C6167652063616E6E6F7420626520656D707479000000000000000000 PUSH1 0x44 DUP3 ADD MSTORE PUSH1 0x64 SWAP1 REVERT JUMPDEST PUSH1 0x40 MLOAD PUSH3 0x461BCD PUSH1 0xE5 SHL DUP2 MSTORE PUSH1 0x20 PUSH1 0x4 DUP3 ADD MSTORE PUSH1 0x1C PUSH1 0x24 DUP3 ADD MSTORE PUSH32 0x4172746973616E206E616D652063616E6E6F7420626520656D70747900000000 PUSH1 0x44 DUP3 ADD MSTORE PUSH1 0x64 SWAP1 REVERT JUMPDEST PUSH1 0x40 MLOAD PUSH3 0x461BCD PUSH1 0xE5 SHL DUP2 MSTORE PUSH1 0x20 PUSH1 0x4 DUP3 ADD MSTORE PUSH1 0x1C PUSH1 0x24 DUP3 ADD MSTORE PUSH32 0x50726F64756374206E616D652063616E6E6F7420626520656D70747900000000 PUSH1 0x44 DUP3 ADD MSTORE PUSH1 0x64 SWAP1 REVERT JUMPDEST PUSH1 0x40 MLOAD PUSH3 0x461BCD PUSH1 0xE5 SHL DUP2 MSTORE PUSH1 0x20 PUSH1 0x4 DUP3 ADD MSTORE PUSH1 0x21 PUSH1 0x24 DUP3 ADD MSTORE PUSH32 0x50726F64756374204944206D7573742062652067726561746572207468616E20 PUSH1 0x44 DUP3 ADD MSTORE PUSH1 0x3 PUSH1 0xFC SHL PUSH1 0x64 DUP3 ADD MSTORE PUSH1 0x84 SWAP1 REVERT JUMPDEST PUSH1 0x40 MLOAD PUSH3 0x461BCD PUSH1 0xE5 SHL DUP2 MSTORE PUSH1 0x20 PUSH1 0x4 DUP3 ADD MSTORE PUSH1 0x19 PUSH1 0x24 DUP3 ADD MSTORE PUSH32 0x50726F6475637420494420616C72656164792065786973747300000000000000 PUSH1 0x44 DUP3 ADD MSTORE PUSH1 0x64 SWAP1 REVERT JUMPDEST PUSH1 0x40 MLOAD PUSH3 0x461BCD PUSH1 0xE5 SHL DUP2 MSTORE PUSH1 0x20 PUSH1 0x4 DUP3 ADD MSTORE PUSH1 0x1F PUSH1 0x24 DUP3 ADD MSTORE PUSH32 0x5265656E7472616E637947756172643A207265656E7472616E742063616C6C00 PUSH1 0x44 DUP3 ADD MSTORE PUSH1 0x64 SWAP1 REVERT JUMPDEST PUSH1 0x0 DUP1 REVERT JUMPDEST CALLVALUE PUSH2 0x168B JUMPI PUSH1 0x20 CALLDATASIZE PUSH1 0x3 NOT ADD SLT PUSH2 0x168B JUMPI PUSH1 0x4 CALLDATALOAD PUSH1 0x1 PUSH1 0x1 PUSH1 0xA0 SHL SUB DUP2 DUP2 AND SWAP2 DUP3 SWAP1 SUB PUSH2 0x168B JUMPI PUSH2 0x16BF PUSH2 0x23D0 JUMP JUMPDEST DUP2 ISZERO PUSH2 0x1707 JUMPI PUSH1 0x0 SLOAD DUP3 PUSH12 0xFFFFFFFFFFFFFFFFFFFFFFFF PUSH1 0xA0 SHL DUP3 AND OR PUSH1 0x0 SSTORE AND PUSH32 0x8BE0079C531659141344CD1FD0A4F28419497F9722A3DAAFE3B4186F6B6457E0 PUSH1 0x0 DUP1 LOG3 STOP JUMPDEST PUSH1 0x40 MLOAD PUSH3 0x461BCD PUSH1 0xE5 SHL DUP2 MSTORE PUSH1 0x20 PUSH1 0x4 DUP3 ADD MSTORE PUSH1 0x26 PUSH1 0x24 DUP3 ADD MSTORE PUSH32 0x4F776E61626C653A206E6577206F776E657220697320746865207A65726F2061 PUSH1 0x44 DUP3 ADD MSTORE PUSH6 0x646472657373 PUSH1 0xD0 SHL PUSH1 0x64 DUP3 ADD MSTORE PUSH1 0x84 SWAP1 REVERT JUMPDEST CALLVALUE PUSH2 0x168B JUMPI PUSH1 0x20 CALLDATASIZE PUSH1 0x3 NOT ADD SLT PUSH2 0x168B JUMPI PUSH1 0x4 CALLDATALOAD PUSH1 0x3 SLOAD DUP2 LT ISZERO PUSH2 0x168B JUMPI PUSH2 0x1784 PUSH1 0x20 SWAP2 PUSH2 0x232D JUMP JUMPDEST SWAP1 SLOAD SWAP1 PUSH1 0x3 SHL SHR PUSH1 0x40 MLOAD SWAP1 DUP2 MSTORE RETURN JUMPDEST CALLVALUE PUSH2 0x168B JUMPI PUSH1 0x20 CALLDATASIZE PUSH1 0x3 NOT ADD SLT PUSH2 0x168B JUMPI PUSH1 0x0 PUSH2 0x220 PUSH1 0x40 MLOAD PUSH2 0x17B5 DUP2 PUSH2 0x220A JUMP JUMPDEST DUP3 DUP2 MSTORE PUSH1 0x60 PUSH1 0x20 DUP3 ADD MSTORE PUSH1 0x60 PUSH1 0x40 DUP3 ADD MSTORE PUSH1 0x60 DUP1 DUP3 ADD MSTORE PUSH1 0x60 PUSH1 0x80 DUP3 ADD MSTORE PUSH1 0x60 PUSH1 0xA0 DUP3 ADD MSTORE PUSH1 0x60 PUSH1 0xC0 DUP3 ADD MSTORE PUSH1 0x60 PUSH1 0xE0 DUP3 ADD MSTORE PUSH1 0x60 PUSH2 0x100 DUP3 ADD MSTORE PUSH1 0x60 PUSH2 0x120 DUP3 ADD MSTORE PUSH1 0x60 PUSH2 0x140 DUP3 ADD MSTORE PUSH1 0x60 PUSH2 0x160 DUP3 ADD MSTORE PUSH1 0x60 PUSH2 0x180 DUP3 ADD MSTORE PUSH1 0x60 PUSH2 0x1A0 DUP3 ADD MSTORE PUSH1 0x60 PUSH2 0x1C0 DUP3 ADD MSTORE DUP3 PUSH2 0x1E0 DUP3 ADD MSTORE DUP3 PUSH2 0x200 DUP3 ADD MSTORE ADD MSTORE PUSH1 0x4 CALLDATALOAD DUP1 PUSH1 0x0 MSTORE PUSH1 0x4 PUSH1 0x20 MSTORE PUSH2 0x184D PUSH1 0xFF PUSH1 0x40 PUSH1 0x0 KECCAK256 SLOAD AND PUSH2 0x2428 JUMP JUMPDEST PUSH1 0x0 MSTORE PUSH1 0x2 PUSH1 0x20 MSTORE PUSH1 0x40 PUSH1 0x0 KECCAK256 PUSH1 0x10 PUSH1 0x40 MLOAD SWAP2 PUSH2 0x1869 DUP4 PUSH2 0x220A JUMP JUMPDEST DUP1 SLOAD DUP4 MSTORE PUSH2 0x1879 PUSH1 0x1 DUP3 ADD PUSH2 0x2247 JUMP JUMPDEST PUSH1 0x20 DUP5 ADD MSTORE PUSH2 0x188A PUSH1 0x2 DUP3 ADD PUSH2 0x2247 JUMP JUMPDEST PUSH1 0x40 DUP5 ADD MSTORE PUSH2 0x189B PUSH1 0x3 DUP3 ADD PUSH2 0x2247 JUMP JUMPDEST PUSH1 0x60 DUP5 ADD MSTORE PUSH2 0x18AC PUSH1 0x4 DUP3 ADD PUSH2 0x2247 JUMP JUMPDEST PUSH1 0x80 DUP5 ADD MSTORE PUSH2 0x18BD PUSH1 0x5 DUP3 ADD PUSH2 0x2247 JUMP JUMPDEST PUSH1 0xA0 DUP5 ADD MSTORE PUSH2 0x18CE PUSH1 0x6 DUP3 ADD PUSH2 0x2247 JUMP JUMPDEST PUSH1 0xC0 DUP5 ADD MSTORE PUSH2 0x18DF PUSH1 0x7 DUP3 ADD PUSH2 0x2247 JUMP JUMPDEST PUSH1 0xE0 DUP5 ADD MSTORE PUSH2 0x18F0 PUSH1 0x8 DUP3 ADD PUSH2 0x2247 JUMP JUMPDEST PUSH2 0x100 DUP5 ADD MSTORE PUSH2 0x1902 PUSH1 0x9 DUP3 ADD PUSH2 0x2247 JUMP JUMPDEST PUSH2 0x120 DUP5 ADD MSTORE PUSH2 0x1914 PUSH1 0xA DUP3 ADD PUSH2 0x2247 JUMP JUMPDEST PUSH2 0x140 DUP5 ADD MSTORE PUSH2 0x1926 PUSH1 0xB DUP3 ADD PUSH2 0x2247 JUMP JUMPDEST PUSH2 0x160 DUP5 ADD MSTORE PUSH2 0x1938 PUSH1 0xC DUP3 ADD PUSH2 0x2247 JUMP JUMPDEST PUSH2 0x180 DUP5 ADD MSTORE PUSH2 0x194A PUSH1 0xD DUP3 ADD PUSH2 0x2247 JUMP JUMPDEST PUSH2 0x1A0 DUP5 ADD MSTORE PUSH2 0x195C PUSH1 0xE DUP3 ADD PUSH2 0x2247 JUMP JUMPDEST PUSH2 0x1C0 DUP5 ADD MSTORE PUSH1 0xF DUP2 ADD SLOAD PUSH2 0x1E0 DUP5 ADD MSTORE ADD SLOAD PUSH1 0xFF DUP2 AND ISZERO ISZERO PUSH2 0x200 DUP4 ADD MSTORE PUSH1 0x1 DUP1 PUSH1 0xA0 SHL SUB SWAP1 PUSH1 0x8 SHR AND PUSH2 0x220 DUP3 ADD MSTORE PUSH1 0x40 MLOAD DUP1 SWAP2 PUSH1 0x20 DUP3 MSTORE DUP1 MLOAD PUSH1 0x20 DUP4 ADD MSTORE PUSH2 0x1B0E PUSH2 0x1AF6 PUSH2 0x1ADE PUSH2 0x1AC6 PUSH2 0x1AAE PUSH2 0x1A96 PUSH2 0x1A7E PUSH2 0x1A66 PUSH2 0x1A4F PUSH2 0x1A39 PUSH2 0x1A23 DUP12 DUP14 PUSH1 0x80 PUSH2 0x1A0E PUSH2 0x19F9 PUSH2 0x19E3 PUSH1 0x20 DUP7 ADD MLOAD PUSH2 0x240 PUSH1 0x40 DUP8 ADD MSTORE PUSH2 0x260 DUP7 ADD SWAP1 PUSH2 0x22ED JUMP JUMPDEST PUSH1 0x40 DUP7 ADD MLOAD DUP6 DUP3 SUB PUSH1 0x1F NOT ADD PUSH1 0x60 DUP8 ADD MSTORE PUSH2 0x22ED JUMP JUMPDEST PUSH1 0x60 DUP6 ADD MLOAD DUP5 DUP3 SUB PUSH1 0x1F NOT ADD DUP5 DUP7 ADD MSTORE PUSH2 0x22ED JUMP JUMPDEST SWAP3 ADD MLOAD SWAP1 PUSH1 0xA0 PUSH1 0x1F NOT DUP3 DUP6 SUB ADD SWAP2 ADD MSTORE PUSH2 0x22ED JUMP JUMPDEST PUSH1 0xA0 DUP13 ADD MLOAD DUP14 DUP3 SUB PUSH1 0x1F NOT ADD PUSH1 0xC0 DUP16 ADD MSTORE PUSH2 0x22ED JUMP JUMPDEST PUSH1 0xC0 DUP12 ADD MLOAD DUP13 DUP3 SUB PUSH1 0x1F NOT ADD PUSH1 0xE0 DUP15 ADD MSTORE PUSH2 0x22ED JUMP JUMPDEST PUSH1 0xE0 DUP11 ADD MLOAD DUP12 DUP3 SUB PUSH1 0x1F NOT ADD PUSH2 0x100 DUP14 ADD MSTORE PUSH2 0x22ED JUMP JUMPDEST PUSH2 0x100 DUP10 ADD MLOAD DUP11 DUP3 SUB PUSH1 0x1F NOT ADD PUSH2 0x120 DUP13 ADD MSTORE PUSH2 0x22ED JUMP JUMPDEST PUSH2 0x120 DUP9 ADD MLOAD DUP10 DUP3 SUB PUSH1 0x1F NOT ADD PUSH2 0x140 DUP12 ADD MSTORE PUSH2 0x22ED JUMP JUMPDEST PUSH2 0x140 DUP8 ADD MLOAD DUP9 DUP3 SUB PUSH1 0x1F NOT ADD PUSH2 0x160 DUP11 ADD MSTORE PUSH2 0x22ED JUMP JUMPDEST PUSH2 0x160 DUP7 ADD MLOAD DUP8 DUP3 SUB PUSH1 0x1F NOT ADD PUSH2 0x180 DUP10 ADD MSTORE PUSH2 0x22ED JUMP JUMPDEST PUSH2 0x180 DUP6 ADD MLOAD DUP7 DUP3 SUB PUSH1 0x1F NOT ADD PUSH2 0x1A0 DUP9 ADD MSTORE PUSH2 0x22ED JUMP JUMPDEST PUSH2 0x1A0 DUP5 ADD MLOAD DUP6 DUP3 SUB PUSH1 0x1F NOT ADD PUSH2 0x1C0 DUP8 ADD MSTORE PUSH2 0x22ED JUMP JUMPDEST PUSH2 0x1C0 DUP4 ADD MLOAD DUP5 DUP3 SUB PUSH1 0x1F NOT ADD PUSH2 0x1E0 DUP7 ADD MSTORE PUSH2 0x22ED JUMP JUMPDEST SWAP1 PUSH2 0x1E0 DUP2 ADD MLOAD PUSH2 0x200 DUP5 ADD MSTORE PUSH2 0x200 DUP2 ADD MLOAD ISZERO ISZERO PUSH2 0x220 DUP5 ADD MSTORE PUSH2 0x220 PUSH1 0x1 DUP1 PUSH1 0xA0 SHL SUB SWAP2 ADD MLOAD AND PUSH2 0x240 DUP4 ADD MSTORE SUB SWAP1 RETURN JUMPDEST CALLVALUE PUSH2 0x168B JUMPI PUSH1 0x20 CALLDATASIZE PUSH1 0x3 NOT ADD SLT PUSH2 0x168B JUMPI PUSH1 0x4 CALLDATALOAD DUP1 PUSH1 0x0 MSTORE PUSH1 0x4 PUSH1 0x20 MSTORE PUSH2 0x1B6F PUSH1 0xFF PUSH1 0x40 PUSH1 0x0 KECCAK256 SLOAD AND PUSH2 0x2428 JUMP JUMPDEST PUSH1 0x0 MSTORE PUSH1 0x2 PUSH1 0x20 MSTORE PUSH1 0x40 PUSH1 0x0 KECCAK256 PUSH1 0x40 MLOAD PUSH2 0x1B88 DUP2 PUSH2 0x220A JUMP JUMPDEST DUP2 SLOAD DUP2 MSTORE PUSH2 0x1B98 PUSH1 0x1 DUP4 ADD PUSH2 0x2247 JUMP JUMPDEST SWAP1 PUSH1 0x20 DUP2 ADD SWAP2 DUP3 MSTORE PUSH2 0x1D16 PUSH2 0x1BAF PUSH1 0x2 DUP6 ADD PUSH2 0x2247 JUMP JUMPDEST SWAP4 PUSH1 0x40 DUP4 ADD SWAP5 DUP6 MSTORE PUSH2 0x1BC3 PUSH1 0x3 DUP3 ADD PUSH2 0x2247 JUMP JUMPDEST PUSH1 0x60 DUP5 ADD MSTORE PUSH2 0x1D08 PUSH2 0x1BD7 PUSH1 0x4 DUP4 ADD PUSH2 0x2247 JUMP JUMPDEST SWAP2 PUSH1 0x80 DUP6 ADD SWAP3 DUP4 MSTORE PUSH2 0x1BEB PUSH1 0x5 DUP3 ADD PUSH2 0x2247 JUMP JUMPDEST PUSH1 0xA0 DUP7 ADD MSTORE PUSH2 0x1BFC PUSH1 0x6 DUP3 ADD PUSH2 0x2247 JUMP JUMPDEST PUSH1 0xC0 DUP7 ADD MSTORE PUSH2 0x1C0D PUSH1 0x7 DUP3 ADD PUSH2 0x2247 JUMP JUMPDEST PUSH1 0xE0 DUP7 ADD MSTORE PUSH2 0x1C1E PUSH1 0x8 DUP3 ADD PUSH2 0x2247 JUMP JUMPDEST PUSH2 0x100 DUP7 ADD MSTORE PUSH2 0x1CFA PUSH1 0x10 PUSH2 0x1C35 PUSH1 0x9 DUP5 ADD PUSH2 0x2247 JUMP JUMPDEST SWAP3 PUSH2 0x120 DUP9 ADD SWAP4 DUP5 MSTORE PUSH2 0x1C4A PUSH1 0xA DUP3 ADD PUSH2 0x2247 JUMP JUMPDEST PUSH2 0x140 DUP10 ADD MSTORE PUSH2 0x1C5C PUSH1 0xB DUP3 ADD PUSH2 0x2247 JUMP JUMPDEST PUSH2 0x160 DUP10 ADD MSTORE PUSH2 0x1C6E PUSH1 0xC DUP3 ADD PUSH2 0x2247 JUMP JUMPDEST PUSH2 0x180 DUP10 ADD MSTORE PUSH2 0x1C80 PUSH1 0xD DUP3 ADD PUSH2 0x2247 JUMP JUMPDEST PUSH2 0x1A0 DUP10 ADD MSTORE PUSH2 0x1C92 PUSH1 0xE DUP3 ADD PUSH2 0x2247 JUMP JUMPDEST PUSH2 0x1C0 DUP10 ADD MSTORE PUSH1 0xF DUP2 ADD SLOAD PUSH2 0x1E0 DUP10 ADD MSTORE ADD SLOAD SWAP6 PUSH1 0xFF DUP8 AND ISZERO ISZERO SWAP7 DUP8 PUSH2 0x200 DUP4 ADD MSTORE PUSH1 0x1 DUP1 PUSH1 0xA0 SHL SUB SWAP1 PUSH1 0x8 SHR AND PUSH2 0x220 DUP3 ADD MSTORE MLOAD SWAP7 MLOAD SWAP8 MLOAD SWAP4 MLOAD SWAP2 MLOAD SWAP4 PUSH2 0x1CEC PUSH1 0x40 MLOAD SWAP10 DUP11 SWAP10 DUP11 MSTORE PUSH1 0xC0 PUSH1 0x20 DUP12 ADD MSTORE PUSH1 0xC0 DUP11 ADD SWAP1 PUSH2 0x22ED JUMP JUMPDEST SWAP1 DUP9 DUP3 SUB PUSH1 0x40 DUP11 ADD MSTORE PUSH2 0x22ED JUMP JUMPDEST SWAP1 DUP7 DUP3 SUB PUSH1 0x60 DUP9 ADD MSTORE PUSH2 0x22ED JUMP JUMPDEST SWAP1 DUP5 DUP3 SUB PUSH1 0x80 DUP7 ADD MSTORE PUSH2 0x22ED JUMP JUMPDEST SWAP1 PUSH1 0xA0 DUP4 ADD MSTORE SUB SWAP1 RETURN JUMPDEST CALLVALUE PUSH2 0x168B JUMPI PUSH1 0x0 CALLDATASIZE PUSH1 0x3 NOT ADD SLT PUSH2 0x168B JUMPI PUSH1 0x0 SLOAD PUSH1 0x40 MLOAD PUSH1 0x1 PUSH1 0x1 PUSH1 0xA0 SHL SUB SWAP1 SWAP2 AND DUP2 MSTORE PUSH1 0x20 SWAP1 RETURN JUMPDEST CALLVALUE PUSH2 0x168B JUMPI PUSH1 0x20 CALLDATASIZE PUSH1 0x3 NOT ADD SLT PUSH2 0x168B JUMPI PUSH1 0x4 CALLDATALOAD PUSH1 0x0 MSTORE PUSH1 0x2 PUSH1 0x20 MSTORE PUSH1 0x40 PUSH1 0x0 KECCAK256 DUP1 SLOAD PUSH1 0x1 DUP3 ADD PUSH2 0x1D79 SWAP1 PUSH2 0x2247 JUMP JUMPDEST PUSH1 0xE0 MSTORE PUSH2 0x1D88 PUSH1 0x2 DUP4 ADD PUSH2 0x2247 JUMP JUMPDEST PUSH1 0xC0 MSTORE PUSH2 0x1D97 PUSH1 0x3 DUP4 ADD PUSH2 0x2247 JUMP JUMPDEST SWAP2 PUSH2 0x1DA4 PUSH1 0x4 DUP3 ADD PUSH2 0x2247 JUMP JUMPDEST PUSH2 0x1DB0 PUSH1 0x5 DUP4 ADD PUSH2 0x2247 JUMP JUMPDEST PUSH2 0x1DBC PUSH1 0x6 DUP5 ADD PUSH2 0x2247 JUMP JUMPDEST PUSH2 0x1DC8 PUSH1 0x7 DUP6 ADD PUSH2 0x2247 JUMP JUMPDEST PUSH2 0x1DD4 PUSH1 0x8 DUP7 ADD PUSH2 0x2247 JUMP JUMPDEST PUSH2 0x1DE0 PUSH1 0x9 DUP8 ADD PUSH2 0x2247 JUMP JUMPDEST SWAP1 PUSH2 0x1DED PUSH1 0xA DUP9 ADD PUSH2 0x2247 JUMP JUMPDEST SWAP3 PUSH2 0x1DFA PUSH1 0xB DUP10 ADD PUSH2 0x2247 JUMP JUMPDEST SWAP5 PUSH2 0x1E07 PUSH1 0xC DUP11 ADD PUSH2 0x2247 JUMP JUMPDEST SWAP7 PUSH2 0x1E14 PUSH1 0xD DUP12 ADD PUSH2 0x2247 JUMP JUMPDEST SWAP9 PUSH2 0x1E21 PUSH1 0xE DUP13 ADD PUSH2 0x2247 JUMP JUMPDEST SWAP11 PUSH1 0xF DUP2 ADD SLOAD PUSH1 0xA0 MSTORE PUSH1 0x10 ADD SLOAD SWAP13 PUSH1 0x40 MLOAD SWAP13 DUP14 PUSH1 0x80 SWAP15 DUP16 MSTORE MSTORE DUP13 PUSH2 0x240 DUP1 SWAP2 MLOAD PUSH1 0x20 ADD MSTORE DUP14 MLOAD ADD PUSH1 0xE0 MLOAD SWAP1 PUSH2 0x1E55 SWAP2 PUSH2 0x22ED JUMP JUMPDEST DUP14 MLOAD DUP1 DUP3 SUB SWAP1 PUSH1 0x40 ADD MSTORE PUSH1 0xC0 MLOAD SWAP1 PUSH2 0x1E6C SWAP2 PUSH2 0x22ED JUMP JUMPDEST DUP14 MLOAD DUP1 DUP3 SUB SWAP1 PUSH1 0x60 ADD MSTORE PUSH2 0x1E7F SWAP2 PUSH2 0x22ED JUMP JUMPDEST DUP13 MLOAD DUP14 DUP2 DUP4 SUB SWAP2 ADD MSTORE PUSH2 0x1E91 SWAP2 PUSH2 0x22ED JUMP JUMPDEST DUP12 MLOAD DUP1 DUP3 SUB SWAP1 PUSH1 0xA0 ADD MSTORE PUSH2 0x1EA4 SWAP2 PUSH2 0x22ED JUMP JUMPDEST DUP11 MLOAD DUP1 DUP3 SUB SWAP1 PUSH1 0xC0 ADD MSTORE PUSH2 0x1EB7 SWAP2 PUSH2 0x22ED JUMP JUMPDEST DUP10 MLOAD DUP1 DUP3 SUB SWAP1 PUSH1 0xE0 ADD MSTORE PUSH2 0x1ECA SWAP2 PUSH2 0x22ED JUMP JUMPDEST DUP9 MLOAD DUP1 DUP3 SUB SWAP1 PUSH2 0x100 ADD MSTORE PUSH2 0x1EDE SWAP2 PUSH2 0x22ED JUMP JUMPDEST DUP8 MLOAD DUP1 DUP3 SUB SWAP1 PUSH2 0x120 ADD MSTORE PUSH2 0x1EF2 SWAP2 PUSH2 0x22ED JUMP JUMPDEST DUP7 MLOAD DUP1 DUP3 SUB SWAP1 PUSH2 0x140 ADD MSTORE PUSH2 0x1F06 SWAP2 PUSH2 0x22ED JUMP JUMPDEST DUP6 MLOAD DUP1 DUP3 SUB SWAP1 PUSH2 0x160 ADD MSTORE PUSH2 0x1F1A SWAP2 PUSH2 0x22ED JUMP JUMPDEST DUP5 MLOAD DUP1 DUP3 SUB SWAP1 PUSH2 0x180 ADD MSTORE PUSH2 0x1F2E SWAP2 PUSH2 0x22ED JUMP JUMPDEST DUP4 MLOAD DUP1 DUP3 SUB SWAP1 PUSH2 0x1A0 ADD MSTORE PUSH2 0x1F42 SWAP2 PUSH2 0x22ED JUMP JUMPDEST DUP3 MLOAD DUP1 DUP3 SUB SWAP1 PUSH2 0x1C0 ADD MSTORE PUSH2 0x1F56 SWAP2 PUSH2 0x22ED JUMP JUMPDEST SWAP2 PUSH1 0xA0 MLOAD DUP3 MLOAD PUSH2 0x1E0 ADD MSTORE PUSH1 0xFF DUP2 AND ISZERO ISZERO DUP3 MLOAD PUSH2 0x200 ADD MSTORE PUSH1 0x1 PUSH1 0xA0 SHL PUSH1 0x1 SWAP1 SUB SWAP1 PUSH1 0x8 SHR AND DUP2 MLOAD PUSH2 0x220 ADD MSTORE MLOAD DUP1 SWAP2 SUB SWAP1 RETURN JUMPDEST CALLVALUE PUSH2 0x168B JUMPI PUSH1 0x0 CALLDATASIZE PUSH1 0x3 NOT ADD SLT PUSH2 0x168B JUMPI PUSH2 0x1FA3 PUSH2 0x23D0 JUMP JUMPDEST PUSH1 0x0 DUP1 SLOAD PUSH1 0x1 PUSH1 0x1 PUSH1 0xA0 SHL SUB NOT DUP2 AND DUP3 SSTORE PUSH1 0x1 PUSH1 0x1 PUSH1 0xA0 SHL SUB AND PUSH32 0x8BE0079C531659141344CD1FD0A4F28419497F9722A3DAAFE3B4186F6B6457E0 DUP3 DUP1 LOG3 STOP JUMPDEST CALLVALUE PUSH2 0x168B JUMPI PUSH1 0x20 CALLDATASIZE PUSH1 0x3 NOT ADD SLT PUSH2 0x168B JUMPI PUSH1 0x4 CALLDATALOAD PUSH1 0x3 SLOAD DUP2 LT ISZERO PUSH2 0x200C JUMPI PUSH2 0x1784 PUSH1 0x20 SWAP2 PUSH2 0x232D JUMP JUMPDEST PUSH1 0x40 MLOAD PUSH3 0x461BCD PUSH1 0xE5 SHL DUP2 MSTORE PUSH1 0x20 PUSH1 0x4 DUP3 ADD MSTORE PUSH1 0x13 PUSH1 0x24 DUP3 ADD MSTORE PUSH19 0x496E646578206F7574206F6620626F756E6473 PUSH1 0x68 SHL PUSH1 0x44 DUP3 ADD MSTORE PUSH1 0x64 SWAP1 REVERT JUMPDEST CALLVALUE PUSH2 0x168B JUMPI PUSH1 0x0 CALLDATASIZE PUSH1 0x3 NOT ADD SLT PUSH2 0x168B JUMPI PUSH1 0x20 PUSH1 0x3 SLOAD PUSH1 0x40 MLOAD SWAP1 DUP2 MSTORE RETURN JUMPDEST CALLVALUE PUSH2 0x168B JUMPI PUSH1 0x20 DUP1 PUSH1 0x3 NOT CALLDATASIZE ADD SLT PUSH2 0x168B JUMPI PUSH1 0x4 CALLDATALOAD PUSH2 0x2082 PUSH2 0x23D0 JUMP JUMPDEST DUP1 PUSH1 0x0 MSTORE PUSH1 0x4 DUP3 MSTORE PUSH2 0x209B PUSH1 0xFF PUSH1 0x40 PUSH1 0x0 KECCAK256 SLOAD AND PUSH2 0x2428 JUMP JUMPDEST DUP1 PUSH1 0x0 MSTORE PUSH1 0x2 DUP3 MSTORE PUSH1 0xFF PUSH1 0x10 PUSH1 0x40 PUSH1 0x0 KECCAK256 ADD SLOAD AND PUSH2 0x2110 JUMPI PUSH1 0x0 DUP2 DUP2 MSTORE PUSH1 0x2 DUP4 MSTORE PUSH1 0x40 SWAP1 KECCAK256 PUSH1 0x10 ADD DUP1 SLOAD PUSH1 0x1 PUSH1 0x1 PUSH1 0xA8 SHL SUB NOT AND CALLER PUSH1 0x8 SHL PUSH2 0x100 PUSH1 0x1 PUSH1 0xA8 SHL SUB AND OR PUSH1 0x1 OR SWAP1 SSTORE PUSH32 0xA913DEF5E0A2F15C60FA63FE23979256A1FF8D6D893238336FA0683B9951266D PUSH1 0x40 MLOAD SWAP3 TIMESTAMP DUP5 MSTORE CALLER SWAP4 LOG3 STOP JUMPDEST PUSH1 0x40 MLOAD PUSH3 0x461BCD PUSH1 0xE5 SHL DUP2 MSTORE PUSH1 0x4 DUP2 ADD DUP4 SWAP1 MSTORE PUSH1 0x18 PUSH1 0x24 DUP3 ADD MSTORE PUSH32 0x50726F6475637420616C72656164792076657269666965640000000000000000 PUSH1 0x44 DUP3 ADD MSTORE PUSH1 0x64 SWAP1 REVERT JUMPDEST CALLVALUE PUSH2 0x168B JUMPI PUSH1 0x20 CALLDATASIZE PUSH1 0x3 NOT ADD SLT PUSH2 0x168B JUMPI PUSH1 0x4 CALLDATALOAD DUP1 PUSH1 0x0 MSTORE PUSH1 0x4 PUSH1 0x20 MSTORE PUSH2 0x2183 PUSH1 0xFF PUSH1 0x40 PUSH1 0x0 KECCAK256 SLOAD AND PUSH2 0x2428 JUMP JUMPDEST PUSH1 0x0 MSTORE PUSH1 0x2 PUSH1 0x20 MSTORE PUSH1 0x20 PUSH1 0xFF PUSH1 0x10 PUSH1 0x40 PUSH1 0x0 KECCAK256 ADD SLOAD AND PUSH1 0x40 MLOAD SWAP1 ISZERO ISZERO DUP2 MSTORE RETURN JUMPDEST CALLVALUE PUSH2 0x168B JUMPI PUSH1 0x20 CALLDATASIZE PUSH1 0x3 NOT ADD SLT PUSH2 0x168B JUMPI PUSH1 0x20 SWAP1 PUSH1 0x4 CALLDATALOAD PUSH1 0x0 MSTORE PUSH1 0x4 DUP3 MSTORE PUSH1 0xFF PUSH1 0x40 PUSH1 0x0 KECCAK256 SLOAD AND ISZERO ISZERO DUP2 MSTORE RETURN JUMPDEST SWAP1 PUSH1 0x1 DUP3 DUP2 SHR SWAP3 AND DUP1 ISZERO PUSH2 0x2200 JUMPI JUMPDEST PUSH1 0x20 DUP4 LT EQ PUSH2 0x21EA JUMPI JUMP JUMPDEST PUSH4 0x4E487B71 PUSH1 0xE0 SHL PUSH1 0x0 MSTORE PUSH1 0x22 PUSH1 0x4 MSTORE PUSH1 0x24 PUSH1 0x0 REVERT JUMPDEST SWAP2 PUSH1 0x7F AND SWAP2 PUSH2 0x21DF JUMP JUMPDEST PUSH2 0x240 DUP2 ADD SWAP1 DUP2 LT PUSH1 0x1 PUSH1 0x1 PUSH1 0x40 SHL SUB DUP3 GT OR PUSH2 0x975 JUMPI PUSH1 0x40 MSTORE JUMP JUMPDEST SWAP1 PUSH1 0x1F DUP1 NOT SWAP2 ADD AND DUP2 ADD SWAP1 DUP2 LT PUSH1 0x1 PUSH1 0x1 PUSH1 0x40 SHL SUB DUP3 GT OR PUSH2 0x975 JUMPI PUSH1 0x40 MSTORE JUMP JUMPDEST SWAP1 PUSH1 0x40 MLOAD SWAP2 DUP3 PUSH1 0x0 DUP3 SLOAD SWAP3 PUSH2 0x225B DUP5 PUSH2 0x21D0 JUMP JUMPDEST SWAP1 DUP2 DUP5 MSTORE PUSH1 0x1 SWAP5 DUP6 DUP2 AND SWAP1 DUP2 PUSH1 0x0 EQ PUSH2 0x22CA JUMPI POP PUSH1 0x1 EQ PUSH2 0x2287 JUMPI JUMPDEST POP POP PUSH2 0x2285 SWAP3 POP SUB DUP4 PUSH2 0x2226 JUMP JUMPDEST JUMP JUMPDEST SWAP1 SWAP4 SWAP2 POP PUSH1 0x0 MSTORE PUSH1 0x20 SWAP1 DUP2 PUSH1 0x0 KECCAK256 SWAP4 PUSH1 0x0 SWAP2 JUMPDEST DUP2 DUP4 LT PUSH2 0x22B2 JUMPI POP POP PUSH2 0x2285 SWAP4 POP DUP3 ADD ADD CODESIZE DUP1 PUSH2 0x2277 JUMP JUMPDEST DUP6 SLOAD DUP9 DUP5 ADD DUP6 ADD MSTORE SWAP5 DUP6 ADD SWAP5 DUP8 SWAP5 POP SWAP2 DUP4 ADD SWAP2 PUSH2 0x229A JUMP JUMPDEST SWAP2 POP POP PUSH2 0x2285 SWAP5 POP PUSH1 0x20 SWAP3 POP PUSH1 0xFF NOT AND DUP3 DUP5 ADD MSTORE ISZERO ISZERO PUSH1 0x5 SHL DUP3 ADD ADD CODESIZE DUP1 PUSH2 0x2277 JUMP JUMPDEST SWAP2 SWAP1 DUP3 MLOAD SWAP3 DUP4 DUP3 MSTORE PUSH1 0x0 JUMPDEST DUP5 DUP2 LT PUSH2 0x2319 JUMPI POP POP DUP3 PUSH1 0x0 PUSH1 0x20 DUP1 SWAP5 SWAP6 DUP5 ADD ADD MSTORE PUSH1 0x1F DUP1 NOT SWAP2 ADD AND ADD ADD SWAP1 JUMP JUMPDEST PUSH1 0x20 DUP2 DUP4 ADD DUP2 ADD MLOAD DUP5 DUP4 ADD DUP3 ADD MSTORE ADD PUSH2 0x22F8 JUMP JUMPDEST PUSH1 0x3 SLOAD DUP2 LT ISZERO PUSH2 0x2364 JUMPI PUSH1 0x3 PUSH1 0x0 MSTORE PUSH32 0xC2575A0E9E593C00F959F8C92F12DB2869C3395A3B0502D05E2516446F71F85B ADD SWAP1 PUSH1 0x0 SWAP1 JUMP JUMPDEST PUSH4 0x4E487B71 PUSH1 0xE0 SHL PUSH1 0x0 MSTORE PUSH1 0x32 PUSH1 0x4 MSTORE PUSH1 0x24 PUSH1 0x0 REVERT JUMPDEST DUP2 PUSH1 0x1F DUP3 ADD SLT ISZERO PUSH2 0x168B JUMPI DUP1 CALLDATALOAD SWAP1 PUSH1 0x1 PUSH1 0x1 PUSH1 0x40 SHL SUB DUP3 GT PUSH2 0x975 JUMPI PUSH1 0x40 MLOAD SWAP3 PUSH2 0x23AE PUSH1 0x1F DUP5 ADD PUSH1 0x1F NOT AND PUSH1 0x20 ADD DUP6 PUSH2 0x2226 JUMP JUMPDEST DUP3 DUP5 MSTORE PUSH1 0x20 DUP4 DUP4 ADD ADD GT PUSH2 0x168B JUMPI DUP2 PUSH1 0x0 SWAP3 PUSH1 0x20 DUP1 SWAP4 ADD DUP4 DUP7 ADD CALLDATACOPY DUP4 ADD ADD MSTORE SWAP1 JUMP JUMPDEST PUSH1 0x0 SLOAD PUSH1 0x1 PUSH1 0x1 PUSH1 0xA0 SHL SUB AND CALLER SUB PUSH2 0x23E4 JUMPI JUMP JUMPDEST PUSH1 0x64 PUSH1 0x40 MLOAD PUSH3 0x461BCD PUSH1 0xE5 SHL DUP2 MSTORE PUSH1 0x20 PUSH1 0x4 DUP3 ADD MSTORE PUSH1 0x20 PUSH1 0x24 DUP3 ADD MSTORE PUSH32 0x4F776E61626C653A2063616C6C6572206973206E6F7420746865206F776E6572 PUSH1 0x44 DUP3 ADD MSTORE REVERT JUMPDEST ISZERO PUSH2 0x242F JUMPI JUMP JUMPDEST PUSH1 0x40 MLOAD PUSH3 0x461BCD PUSH1 0xE5 SHL DUP2 MSTORE PUSH1 0x20 PUSH1 0x4 DUP3 ADD MSTORE PUSH1 0x16 PUSH1 0x24 DUP3 ADD MSTORE PUSH22 0x141C9BD91D58DD08191BD95CC81B9BDD08195E1A5CDD PUSH1 0x52 SHL PUSH1 0x44 DUP3 ADD MSTORE PUSH1 0x64 SWAP1 REVERT INVALID LOG2 PUSH5 0x6970667358 0x22 SLT KECCAK256 JUMPDEST KECCAK256 0xD9 DUP2 SDIV EXTCODEHASH EQ NUMBER SWAP14 PUSH32 0x5A82237A312D94E0523EDDF5D2130D3CCC815650FD8B64736F6C634300081300 CALLER "},"methodIdentifiers":{"addProduct(uint256,string,string,string,string,string,string,string,string,string,string,string,string,string,string)":"fbfb988e","getProduct(uint256)":"b9db15b4","getProductBasicInfo(uint256)":"92cdfcd5","getProductIdByIndex(uint256)":"602c9745","getTotalProducts()":"570aea8a","idExists(uint256)":"0b8a295a","isProductVerified(uint256)":"1f1fc4e3","owner()":"8da5cb5b","productIds(uint256)":"cb51bba9","products(uint256)":"7acc0b20","renounceOwnership()":"715018a6","transferOwnership(address)":"f2fde38b","verifyProduct(uint256)":"524e8462"}}}}}