{
  "_format": "hh-sol-artifact-1",
  "contractName": "BatikAuthenticity",
  "sourceName": "contracts/BatikAuthenticity.sol",
  "abi": [
    {
      "inputs": [],
      "stateMutability": "nonpayable",
      "type": "constructor"
    },
    {
      "anonymous": false,
      "inputs": [
        {
          "indexed": true,
          "internalType": "address",
          "name": "previousOwner",
          "type": "address"
        },
        {
          "indexed": true,
          "internalType": "address",
          "name": "newOwner",
          "type": "address"
        }
      ],
      "name": "OwnershipTransferred",
      "type": "event"
    },
    {
      "anonymous": false,
      "inputs": [
        {
          "indexed": true,
          "internalType": "uint256",
          "name": "id",
          "type": "uint256"
        },
        {
          "indexed": false,
          "internalType": "string",
          "name": "productName",
          "type": "string"
        },
        {
          "indexed": false,
          "internalType": "string",
          "name": "artisanName",
          "type": "string"
        },
        {
          "indexed": true,
          "internalType": "address",
          "name": "addedBy",
          "type": "address"
        }
      ],
      "name": "ProductAdded",
      "type": "event"
    },
    {
      "anonymous": false,
      "inputs": [
        {
          "indexed": true,
          "internalType": "uint256",
          "name": "id",
          "type": "uint256"
        },
        {
          "indexed": true,
          "internalType": "address",
          "name": "verifiedBy",
          "type": "address"
        },
        {
          "indexed": false,
          "internalType": "uint256",
          "name": "timestamp",
          "type": "uint256"
        }
      ],
      "name": "ProductVerified",
      "type": "event"
    },
    {
      "inputs": [
        {
          "internalType": "uint256",
          "name": "_id",
          "type": "uint256"
        },
        {
          "internalType": "string",
          "name": "_productName",
          "type": "string"
        },
        {
          "internalType": "string",
          "name": "_artisanName",
          "type": "string"
        },
        {
          "internalType": "string",
          "name": "_artisanAddress",
          "type": "string"
        },
        {
          "internalType": "string",
          "name": "_village",
          "type": "string"
        },
        {
          "internalType": "string",
          "name": "_district",
          "type": "string"
        },
        {
          "internalType": "string",
          "name": "_regency",
          "type": "string"
        },
        {
          "internalType": "string",
          "name": "_province",
          "type": "string"
        },
        {
          "internalType": "string",
          "name": "_coordinates",
          "type": "string"
        },
        {
          "internalType": "string",
          "name": "_technique",
          "type": "string"
        },
        {
          "internalType": "string",
          "name": "_materials",
          "type": "string"
        },
        {
          "internalType": "string",
          "name": "_description",
          "type": "string"
        },
        {
          "internalType": "string",
          "name": "_imageHash",
          "type": "string"
        },
        {
          "internalType": "string",
          "name": "_artisanImageHash",
          "type": "string"
        },
        {
          "internalType": "string",
          "name": "_videoHash",
          "type": "string"
        }
      ],
      "name": "addProduct",
      "outputs": [],
      "stateMutability": "nonpayable",
      "type": "function"
    },
    {
      "inputs": [
        {
          "internalType": "uint256",
          "name": "_id",
          "type": "uint256"
        }
      ],
      "name": "getProduct",
      "outputs": [
        {
          "components": [
            {
              "internalType": "uint256",
              "name": "id",
              "type": "uint256"
            },
            {
              "internalType": "string",
              "name": "productName",
              "type": "string"
            },
            {
              "internalType": "string",
              "name": "artisanName",
              "type": "string"
            },
            {
              "internalType": "string",
              "name": "artisanAddress",
              "type": "string"
            },
            {
              "internalType": "string",
              "name": "village",
              "type": "string"
            },
            {
              "internalType": "string",
              "name": "district",
              "type": "string"
            },
            {
              "internalType": "string",
              "name": "regency",
              "type": "string"
            },
            {
              "internalType": "string",
              "name": "province",
              "type": "string"
            },
            {
              "internalType": "string",
              "name": "coordinates",
              "type": "string"
            },
            {
              "internalType": "string",
              "name": "technique",
              "type": "string"
            },
            {
              "internalType": "string",
              "name": "materials",
              "type": "string"
            },
            {
              "internalType": "string",
              "name": "description",
              "type": "string"
            },
            {
              "internalType": "string",
              "name": "imageHash",
              "type": "string"
            },
            {
              "internalType": "string",
              "name": "artisanImageHash",
              "type": "string"
            },
            {
              "internalType": "string",
              "name": "videoHash",
              "type": "string"
            },
            {
              "internalType": "uint256",
              "name": "mintDate",
              "type": "uint256"
            },
            {
              "internalType": "bool",
              "name": "isVerified",
              "type": "bool"
            },
            {
              "internalType": "address",
              "name": "verifiedBy",
              "type": "address"
            }
          ],
          "internalType": "struct BatikAuthenticity.Product",
          "name": "",
          "type": "tuple"
        }
      ],
      "stateMutability": "view",
      "type": "function"
    },
    {
      "inputs": [
        {
          "internalType": "uint256",
          "name": "_id",
          "type": "uint256"
        }
      ],
      "name": "getProductBasicInfo",
      "outputs": [
        {
          "internalType": "uint256",
          "name": "id",
          "type": "uint256"
        },
        {
          "internalType": "string",
          "name": "productName",
          "type": "string"
        },
        {
          "internalType": "string",
          "name": "artisanName",
          "type": "string"
        },
        {
          "internalType": "string",
          "name": "village",
          "type": "string"
        },
        {
          "internalType": "string",
          "name": "technique",
          "type": "string"
        },
        {
          "internalType": "bool",
          "name": "isVerified",
          "type": "bool"
        }
      ],
      "stateMutability": "view",
      "type": "function"
    },
    {
      "inputs": [
        {
          "internalType": "uint256",
          "name": "_index",
          "type": "uint256"
        }
      ],
      "name": "getProductIdByIndex",
      "outputs": [
        {
          "internalType": "uint256",
          "name": "",
          "type": "uint256"
        }
      ],
      "stateMutability": "view",
      "type": "function"
    },
    {
      "inputs": [],
      "name": "getTotalProducts",
      "outputs": [
        {
          "internalType": "uint256",
          "name": "",
          "type": "uint256"
        }
      ],
      "stateMutability": "view",
      "type": "function"
    },
    {
      "inputs": [
        {
          "internalType": "uint256",
          "name": "",
          "type": "uint256"
        }
      ],
      "name": "idExists",
      "outputs": [
        {
          "internalType": "bool",
          "name": "",
          "type": "bool"
        }
      ],
      "stateMutability": "view",
      "type": "function"
    },
    {
      "inputs": [
        {
          "internalType": "uint256",
          "name": "_id",
          "type": "uint256"
        }
      ],
      "name": "isProductVerified",
      "outputs": [
        {
          "internalType": "bool",
          "name": "",
          "type": "bool"
        }
      ],
      "stateMutability": "view",
      "type": "function"
    },
    {
      "inputs": [],
      "name": "owner",
      "outputs": [
        {
          "internalType": "address",
          "name": "",
          "type": "address"
        }
      ],
      "stateMutability": "view",
      "type": "function"
    },
    {
      "inputs": [
        {
          "internalType": "uint256",
          "name": "",
          "type": "uint256"
        }
      ],
      "name": "productIds",
      "outputs": [
        {
          "internalType": "uint256",
          "name": "",
          "type": "uint256"
        }
      ],
      "stateMutability": "view",
      "type": "function"
    },
    {
      "inputs": [
        {
          "internalType": "uint256",
          "name": "",
          "type": "uint256"
        }
      ],
      "name": "products",
      "outputs": [
        {
          "internalType": "uint256",
          "name": "id",
          "type": "uint256"
        },
        {
          "internalType": "string",
          "name": "productName",
          "type": "string"
        },
        {
          "internalType": "string",
          "name": "artisanName",
          "type": "string"
        },
        {
          "internalType": "string",
          "name": "artisanAddress",
          "type": "string"
        },
        {
          "internalType": "string",
          "name": "village",
          "type": "string"
        },
        {
          "internalType": "string",
          "name": "district",
          "type": "string"
        },
        {
          "internalType": "string",
          "name": "regency",
          "type": "string"
        },
        {
          "internalType": "string",
          "name": "province",
          "type": "string"
        },
        {
          "internalType": "string",
          "name": "coordinates",
          "type": "string"
        },
        {
          "internalType": "string",
          "name": "technique",
          "type": "string"
        },
        {
          "internalType": "string",
          "name": "materials",
          "type": "string"
        },
        {
          "internalType": "string",
          "name": "description",
          "type": "string"
        },
        {
          "internalType": "string",
          "name": "imageHash",
          "type": "string"
        },
        {
          "internalType": "string",
          "name": "artisanImageHash",
          "type": "string"
        },
        {
          "internalType": "string",
          "name": "videoHash",
          "type": "string"
        },
        {
          "internalType": "uint256",
          "name": "mintDate",
          "type": "uint256"
        },
        {
          "internalType": "bool",
          "name": "isVerified",
          "type": "bool"
        },
        {
          "internalType": "address",
          "name": "verifiedBy",
          "type": "address"
        }
      ],
      "stateMutability": "view",
      "type": "function"
    },
    {
      "inputs": [],
      "name": "renounceOwnership",
      "outputs": [],
      "stateMutability": "nonpayable",
      "type": "function"
    },
    {
      "inputs": [
        {
          "internalType": "address",
          "name": "newOwner",
          "type": "address"
        }
      ],
      "name": "transferOwnership",
      "outputs": [],
      "stateMutability": "nonpayable",
      "type": "function"
    },
    {
      "inputs": [
        {
          "internalType": "uint256",
          "name": "_id",
          "type": "uint256"
        }
      ],
      "name": "verifyProduct",
      "outputs": [],
      "stateMutability": "nonpayable",
      "type": "function"
    }
  ],
  "bytecode": "0x6080806040523461005f5760008054336001600160a01b0319821681178355916001600160a01b03909116907f8be0079c531659141344cd1fd0a4f28419497f9722a3daafe3b4186f6b6457e09080a3600180556124a390816100658239f35b600080fdfe61010080604052600436101561001457600080fd5b60003560e01c9081630b8a295a146121a3575080631f1fc4e314612155578063524e846214612065578063570aea8a14612047578063602c974514611fe3578063715018a614611f8a5780637acc0b2014611d495780638da5cb5b14611d2057806392cdfcd514611b41578063b9db15b414611793578063cb51bba91461175b578063f2fde38b146116905763fbfb988e146100af57600080fd5b3461168b576101e036600319011261168b576024356001600160401b03811161168b576100e090369060040161237a565b6044356001600160401b03811161168b576100ff90369060040161237a565b6064356001600160401b03811161168b5761011e90369060040161237a565b6084356001600160401b03811161168b5761013d90369060040161237a565b60a4356001600160401b03811161168b5761015c90369060040161237a565b60c4356001600160401b03811161168b5761017b90369060040161237a565b60e4356001600160401b03811161168b5761019a90369060040161237a565b610104356001600160401b03811161168b576101ba90369060040161237a565b610124356001600160401b03811161168b576101da90369060040161237a565b610144356001600160401b03811161168b576101fa90369060040161237a565b91610164356001600160401b03811161168b5761021b90369060040161237a565b93610184356001600160401b03811161168b5761023c90369060040161237a565b956001600160401b036101a4351161168b5761025e366101a43560040161237a565b976101c4356001600160401b03811161168b5761027f90369060040161237a565b996102886123d0565b600260015414611646576002600155600435600052600460205260ff6040600020541661160157600435156115b2578d511561156d578c5115611528578051156114e3578d9b8d604080519e8f906102df8261220a565b60043582526020820152015260608d015260808c015260a08b015260c08a015260e08901526101008801526101208701526101408601526101608501526101808401526101a08301526101c0820152426101e082015260006102008201526000610220820152600435600052600260205260406000208151815560208201518051906001600160401b03821161097557819061037e60018501546121d0565b601f8111611490575b50602090601f831160011461141e57600092611413575b50508160011b916000199060031b1c19161760018201555b60408201518051906001600160401b0382116109755781906103db60028501546121d0565b601f81116113c0575b50602090601f831160011461134e57600092611343575b50508160011b916000199060031b1c19161760028201555b60608201518051906001600160401b03821161097557819061043860038501546121d0565b601f81116112f0575b50602090601f831160011461127e57600092611273575b50508160011b916000199060031b1c19161760038201555b60808201518051906001600160401b03821161097557819061049560048501546121d0565b601f8111611220575b50602090601f83116001146111ae576000926111a3575b50508160011b916000199060031b1c19161760048201555b60a08201518051906001600160401b0382116109755781906104f260058501546121d0565b601f8111611150575b50602090601f83116001146110de576000926110d3575b50508160011b916000199060031b1c19161760058201555b60c08201518051906001600160401b03821161097557819061054f60068501546121d0565b601f8111611080575b50602090601f831160011461100e57600092611003575b50508160011b916000199060031b1c19161760068201555b60e08201518051906001600160401b0382116109755781906105ac60078501546121d0565b601f8111610fb0575b50602090601f8311600114610f3e57600092610f33575b50508160011b916000199060031b1c19161760078201555b6101008201518051906001600160401b03821161097557819061060a60088501546121d0565b601f8111610ee0575b50602090601f8311600114610e6e57600092610e63575b50508160011b916000199060031b1c19161760088201555b6101208201518051906001600160401b03821161097557819061066860098501546121d0565b601f8111610e10575b50602090601f8311600114610d9e57600092610d93575b50508160011b916000199060031b1c19161760098201555b6101408201518051906001600160401b0382116109755781906106c6600a8501546121d0565b601f8111610d40575b50602090601f8311600114610cce57600092610cc3575b50508160011b916000199060031b1c191617600a8201555b6101608201518051906001600160401b038211610975578190610724600b8501546121d0565b601f8111610c70575b50602090601f8311600114610bfe57600092610bf3575b50508160011b916000199060031b1c191617600b8201555b6101808201518051906001600160401b038211610975578190610782600c8501546121d0565b601f8111610ba0575b50602090601f8311600114610b2e57600092610b23575b50508160011b916000199060031b1c191617600c8201555b6101a08201518051906001600160401b0382116109755781906107e0600d8501546121d0565b601f8111610ad0575b50602090601f8311600114610a5e57600092610a53575b50508160011b916000199060031b1c191617600d8201555b6101c08201518051906001600160401b0382116109755761083c600e8401546121d0565b601f8111610a0c575b50602090601f83116001146109965791806108ca949260109460009261098b575b50508160011b916000199060031b1c191617600e8201555b6101e0840151600f8201556102008401519101805461022090940151610100600160a81b0360089190911b1691151560ff166001600160a81b0319909416939093171790915560ff1990565b60035468010000000000000000811015610975578060016108ee920160035561232d565b81549060031b90600435821b91600019901b1916179055600435600052600460205260016040600020918254161790557f3b57b518fcac2f7b307764de2a4b23b8543199fbd772f419dcb5a470edbc0ba7610954604051936040855260408501906122ed565b9280840360208201528061096c3395600435956122ed565b0390a360018055005b634e487b7160e01b600052604160045260246000fd5b015190503880610866565b90600e840160005260206000209160005b601f19851681106109f45750926108ca949260019260109583601f198116106109db575b505050811b01600e82015561087e565b015160001960f88460031b161c191690553880806109cb565b919260206001819286850151815501940192016109a7565b600e84016000526020600020601f840160051c810160208510610a4c575b601f830160051c82018110610a40575050610845565b60008155600101610a2a565b5080610a2a565b015190503880610800565b9250600d84016000526020600020906000935b601f1984168510610ab5576001945083601f19811610610a9c575b505050811b01600d820155610818565b015160001960f88460031b161c19169055388080610a8c565b81810151835560209485019460019093019290910190610a71565b909150600d84016000526020600020601f840160051c810160208510610b1c575b90849392915b601f830160051c82018110610b0d5750506107e9565b60008155859450600101610af7565b5080610af1565b0151905038806107a2565b9250600c84016000526020600020906000935b601f1984168510610b85576001945083601f19811610610b6c575b505050811b01600c8201556107ba565b015160001960f88460031b161c19169055388080610b5c565b81810151835560209485019460019093019290910190610b41565b909150600c84016000526020600020601f840160051c810160208510610bec575b90849392915b601f830160051c82018110610bdd57505061078b565b60008155859450600101610bc7565b5080610bc1565b015190503880610744565b9250600b84016000526020600020906000935b601f1984168510610c55576001945083601f19811610610c3c575b505050811b01600b82015561075c565b015160001960f88460031b161c19169055388080610c2c565b81810151835560209485019460019093019290910190610c11565b909150600b84016000526020600020601f840160051c810160208510610cbc575b90849392915b601f830160051c82018110610cad57505061072d565b60008155859450600101610c97565b5080610c91565b0151905038806106e6565b9250600a84016000526020600020906000935b601f1984168510610d25576001945083601f19811610610d0c575b505050811b01600a8201556106fe565b015160001960f88460031b161c19169055388080610cfc565b81810151835560209485019460019093019290910190610ce1565b909150600a84016000526020600020601f840160051c810160208510610d8c575b90849392915b601f830160051c82018110610d7d5750506106cf565b60008155859450600101610d67565b5080610d61565b015190503880610688565b9250600984016000526020600020906000935b601f1984168510610df5576001945083601f19811610610ddc575b505050811b0160098201556106a0565b015160001960f88460031b161c19169055388080610dcc565b81810151835560209485019460019093019290910190610db1565b909150600984016000526020600020601f840160051c810160208510610e5c575b90849392915b601f830160051c82018110610e4d575050610671565b60008155859450600101610e37565b5080610e31565b01519050388061062a565b9250600884016000526020600020906000935b601f1984168510610ec5576001945083601f19811610610eac575b505050811b016008820155610642565b015160001960f88460031b161c19169055388080610e9c565b81810151835560209485019460019093019290910190610e81565b909150600884016000526020600020601f840160051c810160208510610f2c575b90849392915b601f830160051c82018110610f1d575050610613565b60008155859450600101610f07565b5080610f01565b0151905038806105cc565b9250600784016000526020600020906000935b601f1984168510610f95576001945083601f19811610610f7c575b505050811b0160078201556105e4565b015160001960f88460031b161c19169055388080610f6c565b81810151835560209485019460019093019290910190610f51565b909150600784016000526020600020601f840160051c810160208510610ffc575b90849392915b601f830160051c82018110610fed5750506105b5565b60008155859450600101610fd7565b5080610fd1565b01519050388061056f565b9250600684016000526020600020906000935b601f1984168510611065576001945083601f1981161061104c575b505050811b016006820155610587565b015160001960f88460031b161c1916905538808061103c565b81810151835560209485019460019093019290910190611021565b909150600684016000526020600020601f840160051c8101602085106110cc575b90849392915b601f830160051c820181106110bd575050610558565b600081558594506001016110a7565b50806110a1565b015190503880610512565b9250600584016000526020600020906000935b601f1984168510611135576001945083601f1981161061111c575b505050811b01600582015561052a565b015160001960f88460031b161c1916905538808061110c565b818101518355602094850194600190930192909101906110f1565b909150600584016000526020600020601f840160051c81016020851061119c575b90849392915b601f830160051c8201811061118d5750506104fb565b60008155859450600101611177565b5080611171565b0151905038806104b5565b9250600484016000526020600020906000935b601f1984168510611205576001945083601f198116106111ec575b505050811b0160048201556104cd565b015160001960f88460031b161c191690553880806111dc565b818101518355602094850194600190930192909101906111c1565b909150600484016000526020600020601f840160051c81016020851061126c575b90849392915b601f830160051c8201811061125d57505061049e565b60008155859450600101611247565b5080611241565b015190503880610458565b9250600384016000526020600020906000935b601f19841685106112d5576001945083601f198116106112bc575b505050811b016003820155610470565b015160001960f88460031b161c191690553880806112ac565b81810151835560209485019460019093019290910190611291565b909150600384016000526020600020601f840160051c81016020851061133c575b90849392915b601f830160051c8201811061132d575050610441565b60008155859450600101611317565b5080611311565b0151905038806103fb565b9250600284016000526020600020906000935b601f19841685106113a5576001945083601f1981161061138c575b505050811b016002820155610413565b015160001960f88460031b161c1916905538808061137c565b81810151835560209485019460019093019290910190611361565b909150600284016000526020600020601f840160051c81016020851061140c575b90849392915b601f830160051c820181106113fd5750506103e4565b600081558594506001016113e7565b50806113e1565b01519050388061039e565b9250600184016000526020600020906000935b601f1984168510611475576001945083601f1981161061145c575b505050811b0160018201556103b6565b015160001960f88460031b161c1916905538808061144c565b81810151835560209485019460019093019290910190611431565b909150600184016000526020600020601f840160051c8101602085106114dc575b90849392915b601f830160051c820181106114cd575050610387565b600081558594506001016114b7565b50806114b1565b60405162461bcd60e51b815260206004820152601760248201527f56696c6c6167652063616e6e6f7420626520656d7074790000000000000000006044820152606490fd5b60405162461bcd60e51b815260206004820152601c60248201527f4172746973616e206e616d652063616e6e6f7420626520656d707479000000006044820152606490fd5b60405162461bcd60e51b815260206004820152601c60248201527f50726f64756374206e616d652063616e6e6f7420626520656d707479000000006044820152606490fd5b60405162461bcd60e51b815260206004820152602160248201527f50726f64756374204944206d7573742062652067726561746572207468616e206044820152600360fc1b6064820152608490fd5b60405162461bcd60e51b815260206004820152601960248201527f50726f6475637420494420616c726561647920657869737473000000000000006044820152606490fd5b60405162461bcd60e51b815260206004820152601f60248201527f5265656e7472616e637947756172643a207265656e7472616e742063616c6c006044820152606490fd5b600080fd5b3461168b57602036600319011261168b576004356001600160a01b038181169182900361168b576116bf6123d0565b811561170757600054826bffffffffffffffffffffffff60a01b821617600055167f8be0079c531659141344cd1fd0a4f28419497f9722a3daafe3b4186f6b6457e0600080a3005b60405162461bcd60e51b815260206004820152602660248201527f4f776e61626c653a206e6577206f776e657220697320746865207a65726f206160448201526564647265737360d01b6064820152608490fd5b3461168b57602036600319011261168b5760043560035481101561168b5761178460209161232d565b90549060031b1c604051908152f35b3461168b57602036600319011261168b5760006102206040516117b58161220a565b828152606060208201526060604082015260608082015260606080820152606060a0820152606060c0820152606060e08201526060610100820152606061012082015260606101408201526060610160820152606061018082015260606101a082015260606101c0820152826101e082015282610200820152015260043580600052600460205261184d60ff60406000205416612428565b600052600260205260406000206010604051916118698361220a565b8054835261187960018201612247565b602084015261188a60028201612247565b604084015261189b60038201612247565b60608401526118ac60048201612247565b60808401526118bd60058201612247565b60a08401526118ce60068201612247565b60c08401526118df60078201612247565b60e08401526118f060088201612247565b61010084015261190260098201612247565b610120840152611914600a8201612247565b610140840152611926600b8201612247565b610160840152611938600c8201612247565b61018084015261194a600d8201612247565b6101a084015261195c600e8201612247565b6101c0840152600f8101546101e0840152015460ff8116151561020083015260018060a01b039060081c1661022082015260405180916020825280516020830152611b0e611af6611ade611ac6611aae611a96611a7e611a66611a4f611a39611a238b8d6080611a0e6119f96119e3602086015161024060408701526102608601906122ed565b6040860151858203601f190160608701526122ed565b6060850151848203601f1901848601526122ed565b9201519060a0601f19828503019101526122ed565b60a08c01518d8203601f190160c08f01526122ed565b60c08b01518c8203601f190160e08e01526122ed565b60e08a01518b8203601f19016101008d01526122ed565b6101008901518a8203601f19016101208c01526122ed565b610120880151898203601f19016101408b01526122ed565b610140870151888203601f19016101608a01526122ed565b610160860151878203601f19016101808901526122ed565b610180850151868203601f19016101a08801526122ed565b6101a0840151858203601f19016101c08701526122ed565b6101c0830151848203601f19016101e08601526122ed565b906101e0810151610200840152610200810151151561022084015261022060018060a01b03910151166102408301520390f35b3461168b57602036600319011261168b57600435806000526004602052611b6f60ff60406000205416612428565b60005260026020526040600020604051611b888161220a565b81548152611b9860018301612247565b9060208101918252611d16611baf60028501612247565b9360408301948552611bc360038201612247565b6060840152611d08611bd760048301612247565b9160808501928352611beb60058201612247565b60a0860152611bfc60068201612247565b60c0860152611c0d60078201612247565b60e0860152611c1e60088201612247565b610100860152611cfa6010611c3560098401612247565b926101208801938452611c4a600a8201612247565b610140890152611c5c600b8201612247565b610160890152611c6e600c8201612247565b610180890152611c80600d8201612247565b6101a0890152611c92600e8201612247565b6101c0890152600f8101546101e089015201549560ff87161515968761020083015260018060a01b039060081c1661022082015251965197519351915193611cec604051998a998a5260c060208b015260c08a01906122ed565b9088820360408a01526122ed565b9086820360608801526122ed565b9084820360808601526122ed565b9060a08301520390f35b3461168b57600036600319011261168b576000546040516001600160a01b039091168152602090f35b3461168b57602036600319011261168b5760043560005260026020526040600020805460018201611d7990612247565b60e052611d8860028301612247565b60c052611d9760038301612247565b91611da460048201612247565b611db060058301612247565b611dbc60068401612247565b611dc860078501612247565b611dd460088601612247565b611de060098701612247565b90611ded600a8801612247565b92611dfa600b8901612247565b94611e07600c8a01612247565b96611e14600d8b01612247565b98611e21600e8c01612247565b9a600f81015460a052601001549c6040519c8d60809e8f52528c610240809151602001528d510160e05190611e55916122ed565b8d51808203906040015260c05190611e6c916122ed565b8d518082039060600152611e7f916122ed565b8c518d818303910152611e91916122ed565b8b518082039060a00152611ea4916122ed565b8a518082039060c00152611eb7916122ed565b89518082039060e00152611eca916122ed565b8851808203906101000152611ede916122ed565b8751808203906101200152611ef2916122ed565b8651808203906101400152611f06916122ed565b8551808203906101600152611f1a916122ed565b8451808203906101800152611f2e916122ed565b8351808203906101a00152611f42916122ed565b8251808203906101c00152611f56916122ed565b9160a05182516101e0015260ff8116151582516102000152600160a01b600190039060081c16815161022001525180910390f35b3461168b57600036600319011261168b57611fa36123d0565b600080546001600160a01b0319811682556001600160a01b03167f8be0079c531659141344cd1fd0a4f28419497f9722a3daafe3b4186f6b6457e08280a3005b3461168b57602036600319011261168b5760043560035481101561200c5761178460209161232d565b60405162461bcd60e51b8152602060048201526013602482015272496e646578206f7574206f6620626f756e647360681b6044820152606490fd5b3461168b57600036600319011261168b576020600354604051908152f35b3461168b5760208060031936011261168b576004356120826123d0565b806000526004825261209b60ff60406000205416612428565b806000526002825260ff60106040600020015416612110576000818152600283526040902060100180546001600160a81b0319163360081b610100600160a81b03161760011790557fa913def5e0a2f15c60fa63fe23979256a1ff8d6d893238336fa0683b9951266d604051924284523393a3005b60405162461bcd60e51b815260048101839052601860248201527f50726f6475637420616c726561647920766572696669656400000000000000006044820152606490fd5b3461168b57602036600319011261168b5760043580600052600460205261218360ff60406000205416612428565b6000526002602052602060ff601060406000200154166040519015158152f35b3461168b57602036600319011261168b576020906004356000526004825260ff6040600020541615158152f35b90600182811c92168015612200575b60208310146121ea57565b634e487b7160e01b600052602260045260246000fd5b91607f16916121df565b61024081019081106001600160401b0382111761097557604052565b90601f801991011681019081106001600160401b0382111761097557604052565b906040519182600082549261225b846121d0565b9081845260019485811690816000146122ca5750600114612287575b505061228592500383612226565b565b9093915060005260209081600020936000915b8183106122b257505061228593508201013880612277565b8554888401850152948501948794509183019161229a565b91505061228594506020925060ff191682840152151560051b8201013880612277565b919082519283825260005b848110612319575050826000602080949584010152601f8019910116010190565b6020818301810151848301820152016122f8565b6003548110156123645760036000527fc2575a0e9e593c00f959f8c92f12db2869c3395a3b0502d05e2516446f71f85b0190600090565b634e487b7160e01b600052603260045260246000fd5b81601f8201121561168b578035906001600160401b03821161097557604051926123ae601f8401601f191660200185612226565b8284526020838301011161168b57816000926020809301838601378301015290565b6000546001600160a01b031633036123e457565b606460405162461bcd60e51b815260206004820152602060248201527f4f776e61626c653a2063616c6c6572206973206e6f7420746865206f776e65726044820152fd5b1561242f57565b60405162461bcd60e51b8152602060048201526016602482015275141c9bd91d58dd08191bd95cc81b9bdd08195e1a5cdd60521b6044820152606490fdfea26469706673582212205b20d981053f14439d7f5a82237a312d94e0523eddf5d2130d3ccc815650fd8b64736f6c63430008130033",
  "linkReferences": {},
  "deployedLinkReferences": {}
}